{
  "contractName": "OceanToken",
  "abi": [
    {
      "constant": true,
      "inputs": [],
      "name": "name",
      "outputs": [
        {
          "name": "",
          "type": "string"
        }
      ],
      "payable": false,
      "stateMutability": "view",
      "type": "function",
      "signature": "0x06fdde03"
    },
    {
      "constant": false,
      "inputs": [
        {
          "name": "spender",
          "type": "address"
        },
        {
          "name": "value",
          "type": "uint256"
        }
      ],
      "name": "approve",
      "outputs": [
        {
          "name": "",
          "type": "bool"
        }
      ],
      "payable": false,
      "stateMutability": "nonpayable",
      "type": "function",
      "signature": "0x095ea7b3"
    },
    {
      "constant": true,
      "inputs": [],
      "name": "totalSupply",
      "outputs": [
        {
          "name": "",
          "type": "uint256"
        }
      ],
      "payable": false,
      "stateMutability": "view",
      "type": "function",
      "signature": "0x18160ddd"
    },
    {
      "constant": false,
      "inputs": [
        {
          "name": "from",
          "type": "address"
        },
        {
          "name": "to",
          "type": "address"
        },
        {
          "name": "value",
          "type": "uint256"
        }
      ],
      "name": "transferFrom",
      "outputs": [
        {
          "name": "",
          "type": "bool"
        }
      ],
      "payable": false,
      "stateMutability": "nonpayable",
      "type": "function",
      "signature": "0x23b872dd"
    },
    {
      "constant": true,
      "inputs": [],
      "name": "decimals",
      "outputs": [
        {
          "name": "",
          "type": "uint8"
        }
      ],
      "payable": false,
      "stateMutability": "view",
      "type": "function",
      "signature": "0x313ce567"
    },
    {
      "constant": true,
      "inputs": [],
      "name": "cap",
      "outputs": [
        {
          "name": "",
          "type": "uint256"
        }
      ],
      "payable": false,
      "stateMutability": "view",
      "type": "function",
      "signature": "0x355274ea"
    },
    {
      "constant": false,
      "inputs": [
        {
          "name": "spender",
          "type": "address"
        },
        {
          "name": "addedValue",
          "type": "uint256"
        }
      ],
      "name": "increaseAllowance",
      "outputs": [
        {
          "name": "",
          "type": "bool"
        }
      ],
      "payable": false,
      "stateMutability": "nonpayable",
      "type": "function",
      "signature": "0x39509351"
    },
    {
      "constant": false,
      "inputs": [
        {
          "name": "to",
          "type": "address"
        },
        {
          "name": "value",
          "type": "uint256"
        }
      ],
      "name": "mint",
      "outputs": [
        {
          "name": "",
          "type": "bool"
        }
      ],
      "payable": false,
      "stateMutability": "nonpayable",
      "type": "function",
      "signature": "0x40c10f19"
    },
    {
      "constant": true,
      "inputs": [
        {
          "name": "owner",
          "type": "address"
        }
      ],
      "name": "balanceOf",
      "outputs": [
        {
          "name": "",
          "type": "uint256"
        }
      ],
      "payable": false,
      "stateMutability": "view",
      "type": "function",
      "signature": "0x70a08231"
    },
    {
      "constant": false,
      "inputs": [],
      "name": "renounceOwnership",
      "outputs": [],
      "payable": false,
      "stateMutability": "nonpayable",
      "type": "function",
      "signature": "0x715018a6"
    },
    {
      "constant": true,
      "inputs": [],
      "name": "owner",
      "outputs": [
        {
          "name": "",
          "type": "address"
        }
      ],
      "payable": false,
      "stateMutability": "view",
      "type": "function",
      "signature": "0x8da5cb5b"
    },
    {
      "constant": true,
      "inputs": [],
      "name": "isOwner",
      "outputs": [
        {
          "name": "",
          "type": "bool"
        }
      ],
      "payable": false,
      "stateMutability": "view",
      "type": "function",
      "signature": "0x8f32d59b"
    },
    {
      "constant": true,
      "inputs": [],
      "name": "symbol",
      "outputs": [
        {
          "name": "",
          "type": "string"
        }
      ],
      "payable": false,
      "stateMutability": "view",
      "type": "function",
      "signature": "0x95d89b41"
    },
    {
      "constant": false,
      "inputs": [
        {
          "name": "account",
          "type": "address"
        }
      ],
      "name": "addMinter",
      "outputs": [],
      "payable": false,
      "stateMutability": "nonpayable",
      "type": "function",
      "signature": "0x983b2d56"
    },
    {
      "constant": false,
      "inputs": [],
      "name": "renounceMinter",
      "outputs": [],
      "payable": false,
      "stateMutability": "nonpayable",
      "type": "function",
      "signature": "0x98650275"
    },
    {
      "constant": false,
      "inputs": [
        {
          "name": "spender",
          "type": "address"
        },
        {
          "name": "subtractedValue",
          "type": "uint256"
        }
      ],
      "name": "decreaseAllowance",
      "outputs": [
        {
          "name": "",
          "type": "bool"
        }
      ],
      "payable": false,
      "stateMutability": "nonpayable",
      "type": "function",
      "signature": "0xa457c2d7"
    },
    {
      "constant": false,
      "inputs": [
        {
          "name": "to",
          "type": "address"
        },
        {
          "name": "value",
          "type": "uint256"
        }
      ],
      "name": "transfer",
      "outputs": [
        {
          "name": "",
          "type": "bool"
        }
      ],
      "payable": false,
      "stateMutability": "nonpayable",
      "type": "function",
      "signature": "0xa9059cbb"
    },
    {
      "constant": true,
      "inputs": [
        {
          "name": "account",
          "type": "address"
        }
      ],
      "name": "isMinter",
      "outputs": [
        {
          "name": "",
          "type": "bool"
        }
      ],
      "payable": false,
      "stateMutability": "view",
      "type": "function",
      "signature": "0xaa271e1a"
    },
    {
      "constant": true,
      "inputs": [
        {
          "name": "owner",
          "type": "address"
        },
        {
          "name": "spender",
          "type": "address"
        }
      ],
      "name": "allowance",
      "outputs": [
        {
          "name": "",
          "type": "uint256"
        }
      ],
      "payable": false,
      "stateMutability": "view",
      "type": "function",
      "signature": "0xdd62ed3e"
    },
    {
      "constant": false,
      "inputs": [
        {
          "name": "newOwner",
          "type": "address"
        }
      ],
      "name": "transferOwnership",
      "outputs": [],
      "payable": false,
      "stateMutability": "nonpayable",
      "type": "function",
      "signature": "0xf2fde38b"
    },
    {
      "inputs": [],
      "payable": false,
      "stateMutability": "nonpayable",
      "type": "constructor",
      "signature": "constructor"
    },
    {
      "anonymous": false,
      "inputs": [
        {
          "indexed": true,
          "name": "account",
          "type": "address"
        }
      ],
      "name": "MinterAdded",
      "type": "event",
      "signature": "0x6ae172837ea30b801fbfcdd4108aa1d5bf8ff775444fd70256b44e6bf3dfc3f6"
    },
    {
      "anonymous": false,
      "inputs": [
        {
          "indexed": true,
          "name": "account",
          "type": "address"
        }
      ],
      "name": "MinterRemoved",
      "type": "event",
      "signature": "0xe94479a9f7e1952cc78f2d6baab678adc1b772d936c6583def489e524cb66692"
    },
    {
      "anonymous": false,
      "inputs": [
        {
          "indexed": true,
          "name": "from",
          "type": "address"
        },
        {
          "indexed": true,
          "name": "to",
          "type": "address"
        },
        {
          "indexed": false,
          "name": "value",
          "type": "uint256"
        }
      ],
      "name": "Transfer",
      "type": "event",
      "signature": "0xddf252ad1be2c89b69c2b068fc378daa952ba7f163c4a11628f55a4df523b3ef"
    },
    {
      "anonymous": false,
      "inputs": [
        {
          "indexed": true,
          "name": "owner",
          "type": "address"
        },
        {
          "indexed": true,
          "name": "spender",
          "type": "address"
        },
        {
          "indexed": false,
          "name": "value",
          "type": "uint256"
        }
      ],
      "name": "Approval",
      "type": "event",
      "signature": "0x8c5be1e5ebec7d5bd14f71427d1e84f3dd0314c0f7b2291e5b200ac8c7c3b925"
    },
    {
      "anonymous": false,
      "inputs": [
        {
          "indexed": true,
          "name": "previousOwner",
          "type": "address"
        },
        {
          "indexed": true,
          "name": "newOwner",
          "type": "address"
        }
      ],
      "name": "OwnershipTransferred",
      "type": "event",
      "signature": "0x8be0079c531659141344cd1fd0a4f28419497f9722a3daafe3b4186f6b6457e0"
    }
  ],
  "bytecode": "0x608060405263540ae48060098190556200003090670de0b6b3a764000064010000000062000ca36200018582021704565b600a553480156200004057600080fd5b50600a80546040805180820182529283527f4f6365616e546f6b656e0000000000000000000000000000000000000000000060208085019190915281518083018352600581527f4f4345414e0000000000000000000000000000000000000000000000000000009181019190915260008054600160a060020a031916331780825592519394939192601292600160a060020a039190911691907f8be0079c531659141344cd1fd0a4f28419497f9722a3daafe3b4186f6b6457e0908290a3825162000113906001906020860190620003d7565b50815162000129906002906020850190620003d7565b506003805460ff191660ff929092169190911790555062000155905033640100000000620001bd810204565b600081116200016357600080fd5b600855600a546200017f9033906401000000006200020f810204565b62000479565b60008215156200019857506000620001b7565b828202828482811515620001a857fe5b0414620001b457600080fd5b90505b92915050565b620001d860078264010000000062000c096200026982021704565b604051600160a060020a038216907f6ae172837ea30b801fbfcdd4108aa1d5bf8ff775444fd70256b44e6bf3dfc3f690600090a250565b6008546200023f826200022a640100000000620002c4810204565b90640100000000620009cc620002cb82021704565b11156200024b57600080fd5b62000265828264010000000062000b5d620002de82021704565b5050565b600160a060020a03811615156200027f57600080fd5b6200029482826401000000006200039f810204565b156200029f57600080fd5b600160a060020a0316600090815260209190915260409020805460ff19166001179055565b6006545b90565b600082820183811015620001b457600080fd5b600160a060020a0382161515620002f457600080fd5b600654620003119082640100000000620009cc620002cb82021704565b600655600160a060020a038216600090815260046020526040902054620003479082640100000000620009cc620002cb82021704565b600160a060020a03831660008181526004602090815260408083209490945583518581529351929391927fddf252ad1be2c89b69c2b068fc378daa952ba7f163c4a11628f55a4df523b3ef9281900390910190a35050565b6000600160a060020a0382161515620003b757600080fd5b50600160a060020a03166000908152602091909152604090205460ff1690565b828054600181600116156101000203166002900490600052602060002090601f016020900481019282601f106200041a57805160ff19168380011785556200044a565b828001600101855582156200044a579182015b828111156200044a5782518255916020019190600101906200042d565b50620004589291506200045c565b5090565b620002c891905b8082111562000458576000815560010162000463565b610cfa80620004896000396000f3fe608060405234801561001057600080fd5b5060043610610149576000357c0100000000000000000000000000000000000000000000000000000000900480638da5cb5b116100ca578063a457c2d71161008e578063a457c2d71461036b578063a9059cbb14610397578063aa271e1a146103c3578063dd62ed3e146103e9578063f2fde38b1461041757610149565b80638da5cb5b146103095780638f32d59b1461032d57806395d89b4114610335578063983b2d561461033d578063986502751461036357610149565b8063355274ea11610111578063355274ea14610279578063395093511461028157806340c10f19146102ad57806370a08231146102d9578063715018a6146102ff57610149565b806306fdde031461014e578063095ea7b3146101cb57806318160ddd1461020b57806323b872dd14610225578063313ce5671461025b575b600080fd5b61015661043d565b6040805160208082528351818301528351919283929083019185019080838360005b83811015610190578181015183820152602001610178565b50505050905090810190601f1680156101bd5780820380516001836020036101000a031916815260200191505b509250505060405180910390f35b6101f7600480360360408110156101e157600080fd5b50600160a060020a0381351690602001356104d2565b604080519115158252519081900360200190f35b610213610551565b60408051918252519081900360200190f35b6101f76004803603606081101561023b57600080fd5b50600160a060020a03813581169160208101359091169060400135610557565b610263610620565b6040805160ff9092168252519081900360200190f35b610213610629565b6101f76004803603604081101561029757600080fd5b50600160a060020a03813516906020013561062f565b6101f7600480360360408110156102c357600080fd5b50600160a060020a0381351690602001356106df565b610213600480360360208110156102ef57600080fd5b5035600160a060020a0316610708565b610307610723565b005b61031161078d565b60408051600160a060020a039092168252519081900360200190f35b6101f761079c565b6101566107ad565b6103076004803603602081101561035357600080fd5b5035600160a060020a031661080b565b61030761082b565b6101f76004803603604081101561038157600080fd5b50600160a060020a038135169060200135610836565b6101f7600480360360408110156103ad57600080fd5b50600160a060020a038135169060200135610881565b6101f7600480360360208110156103d957600080fd5b5035600160a060020a031661088e565b610213600480360360408110156103ff57600080fd5b50600160a060020a03813581169160200135166108a1565b6103076004803603602081101561042d57600080fd5b5035600160a060020a03166108cc565b60018054604080516020601f600260001961010087891615020190951694909404938401819004810282018101909252828152606093909290918301828280156104c85780601f1061049d576101008083540402835291602001916104c8565b820191906000526020600020905b8154815290600101906020018083116104ab57829003601f168201915b5050505050905090565b6000600160a060020a03831615156104e957600080fd5b336000818152600560209081526040808320600160a060020a03881680855290835292819020869055805186815290519293927f8c5be1e5ebec7d5bd14f71427d1e84f3dd0314c0f7b2291e5b200ac8c7c3b925929181900390910190a35060015b92915050565b60065490565b600160a060020a038316600090815260056020908152604080832033845290915281205461058b908363ffffffff6108e816565b600160a060020a03851660009081526005602090815260408083203384529091529020556105ba8484846108fd565b600160a060020a0384166000818152600560209081526040808320338085529083529281902054815190815290519293927f8c5be1e5ebec7d5bd14f71427d1e84f3dd0314c0f7b2291e5b200ac8c7c3b925929181900390910190a35060019392505050565b60035460ff1690565b60085490565b6000600160a060020a038316151561064657600080fd5b336000908152600560209081526040808320600160a060020a038716845290915290205461067a908363ffffffff6109cc16565b336000818152600560209081526040808320600160a060020a0389168085529083529281902085905580519485525191937f8c5be1e5ebec7d5bd14f71427d1e84f3dd0314c0f7b2291e5b200ac8c7c3b925929081900390910190a350600192915050565b60006106ea3361088e565b15156106f557600080fd5b6106ff83836109e5565b50600192915050565b600160a060020a031660009081526004602052604090205490565b61072b61079c565b151561073657600080fd5b60008054604051600160a060020a03909116907f8be0079c531659141344cd1fd0a4f28419497f9722a3daafe3b4186f6b6457e0908390a36000805473ffffffffffffffffffffffffffffffffffffffff19169055565b600054600160a060020a031690565b600054600160a060020a0316331490565b60028054604080516020601f60001961010060018716150201909416859004938401819004810282018101909252828152606093909290918301828280156104c85780601f1061049d576101008083540402835291602001916104c8565b6108143361088e565b151561081f57600080fd5b61082881610a19565b50565b61083433610a61565b565b6000600160a060020a038316151561084d57600080fd5b336000908152600560209081526040808320600160a060020a038716845290915290205461067a908363ffffffff6108e816565b60006106ff3384846108fd565b600061054b60078363ffffffff610aa916565b600160a060020a03918216600090815260056020908152604080832093909416825291909152205490565b6108d461079c565b15156108df57600080fd5b61082881610ae0565b6000828211156108f757600080fd5b50900390565b600160a060020a038216151561091257600080fd5b600160a060020a03831660009081526004602052604090205461093b908263ffffffff6108e816565b600160a060020a038085166000908152600460205260408082209390935590841681522054610970908263ffffffff6109cc16565b600160a060020a0380841660008181526004602090815260409182902094909455805185815290519193928716927fddf252ad1be2c89b69c2b068fc378daa952ba7f163c4a11628f55a4df523b3ef92918290030190a3505050565b6000828201838110156109de57600080fd5b9392505050565b600854610a00826109f4610551565b9063ffffffff6109cc16565b1115610a0b57600080fd5b610a158282610b5d565b5050565b610a2a60078263ffffffff610c0916565b604051600160a060020a038216907f6ae172837ea30b801fbfcdd4108aa1d5bf8ff775444fd70256b44e6bf3dfc3f690600090a250565b610a7260078263ffffffff610c5716565b604051600160a060020a038216907fe94479a9f7e1952cc78f2d6baab678adc1b772d936c6583def489e524cb6669290600090a250565b6000600160a060020a0382161515610ac057600080fd5b50600160a060020a03166000908152602091909152604090205460ff1690565b600160a060020a0381161515610af557600080fd5b60008054604051600160a060020a03808516939216917f8be0079c531659141344cd1fd0a4f28419497f9722a3daafe3b4186f6b6457e091a36000805473ffffffffffffffffffffffffffffffffffffffff1916600160a060020a0392909216919091179055565b600160a060020a0382161515610b7257600080fd5b600654610b85908263ffffffff6109cc16565b600655600160a060020a038216600090815260046020526040902054610bb1908263ffffffff6109cc16565b600160a060020a03831660008181526004602090815260408083209490945583518581529351929391927fddf252ad1be2c89b69c2b068fc378daa952ba7f163c4a11628f55a4df523b3ef9281900390910190a35050565b600160a060020a0381161515610c1e57600080fd5b610c288282610aa9565b15610c3257600080fd5b600160a060020a0316600090815260209190915260409020805460ff19166001179055565b600160a060020a0381161515610c6c57600080fd5b610c768282610aa9565b1515610c8157600080fd5b600160a060020a0316600090815260209190915260409020805460ff19169055565b6000821515610cb45750600061054b565b828202828482811515610cc357fe5b04146109de57600080fdfea165627a7a7230582063b76a0f09d4154b129d964866fca55c72f33150fdc45f1f42796ab6fd895cb20029",
  "source": "pragma solidity 0.5.3;\n\nimport 'openzeppelin-solidity/contracts/token/ERC20/ERC20Capped.sol';\nimport 'openzeppelin-solidity/contracts/token/ERC20/ERC20Detailed.sol';\nimport 'openzeppelin-solidity/contracts/ownership/Ownable.sol';\n\n/**\n * @title Ocean Protocol ERC20 Token Contract\n * @author Ocean Protocol Team\n *\n * @dev Implementation of the Ocean Token.\n */\ncontract OceanToken is Ownable, ERC20Detailed, ERC20Capped {\n\n\tusing SafeMath for uint256;\n\n\tuint256 CAP = 1410000000;\n\tuint256 TOTALSUPPLY = CAP.mul(10 ** 18);\n\n\t/**\n\t* @dev OceanToken constructor\n\t*      Runs only on initial contract creation.\n\t*/\n\tconstructor()\n\t\tpublic\n\t\tERC20Detailed('OceanToken', 'OCEAN', 18)\n\t\tERC20Capped(TOTALSUPPLY)\n\t\tOwnable()\n\t{\n\t\t_mint(msg.sender, TOTALSUPPLY);\n\t}\n\n}\n",
  "sourcePath": "/Users/fancy/Documents/Ocean Protocol/research/16-research-repo/research/4-uniswap/ocean-uniswap/ocean-token/contracts/OceanToken.sol",
  "compiler": {
    "name": "solc",
    "version": "0.5.3+commit.10d17f24.Emscripten.clang"
  },
  "schemaVersion": "3.0.1",
  "updatedAt": "2019-03-11T22:40:09.561Z",
  "devdoc": {
    "author": "Ocean Protocol Team",
    "details": "Implementation of the Ocean Token.",
    "methods": {
      "allowance(address,address)": {
        "details": "Function to check the amount of tokens that an owner allowed to a spender.",
        "params": {
          "owner": "address The address which owns the funds.",
          "spender": "address The address which will spend the funds."
        },
        "return": "A uint256 specifying the amount of tokens still available for the spender."
      },
      "approve(address,uint256)": {
        "details": "Approve the passed address to spend the specified amount of tokens on behalf of msg.sender. Beware that changing an allowance with this method brings the risk that someone may use both the old and the new allowance by unfortunate transaction ordering. One possible solution to mitigate this race condition is to first reduce the spender's allowance to 0 and set the desired value afterwards: https://github.com/ethereum/EIPs/issues/20#issuecomment-263524729",
        "params": {
          "spender": "The address which will spend the funds.",
          "value": "The amount of tokens to be spent."
        }
      },
      "balanceOf(address)": {
        "details": "Gets the balance of the specified address.",
        "params": {
          "owner": "The address to query the balance of."
        },
        "return": "An uint256 representing the amount owned by the passed address."
      },
      "cap()": {
        "return": "the cap for the token minting."
      },
      "constructor": {
        "details": "OceanToken constructor     Runs only on initial contract creation."
      },
      "decimals()": {
        "return": "the number of decimals of the token."
      },
      "decreaseAllowance(address,uint256)": {
        "details": "Decrease the amount of tokens that an owner allowed to a spender. approve should be called when allowed_[_spender] == 0. To decrement allowed value is better to use this function to avoid 2 calls (and wait until the first transaction is mined) From MonolithDAO Token.sol Emits an Approval event.",
        "params": {
          "spender": "The address which will spend the funds.",
          "subtractedValue": "The amount of tokens to decrease the allowance by."
        }
      },
      "increaseAllowance(address,uint256)": {
        "details": "Increase the amount of tokens that an owner allowed to a spender. approve should be called when allowed_[_spender] == 0. To increment allowed value is better to use this function to avoid 2 calls (and wait until the first transaction is mined) From MonolithDAO Token.sol Emits an Approval event.",
        "params": {
          "addedValue": "The amount of tokens to increase the allowance by.",
          "spender": "The address which will spend the funds."
        }
      },
      "isOwner()": {
        "return": "true if `msg.sender` is the owner of the contract."
      },
      "mint(address,uint256)": {
        "details": "Function to mint tokens",
        "params": {
          "to": "The address that will receive the minted tokens.",
          "value": "The amount of tokens to mint."
        },
        "return": "A boolean that indicates if the operation was successful."
      },
      "name()": {
        "return": "the name of the token."
      },
      "owner()": {
        "return": "the address of the owner."
      },
      "renounceOwnership()": {
        "details": "Allows the current owner to relinquish control of the contract."
      },
      "symbol()": {
        "return": "the symbol of the token."
      },
      "totalSupply()": {
        "details": "Total number of tokens in existence"
      },
      "transfer(address,uint256)": {
        "details": "Transfer token for a specified address",
        "params": {
          "to": "The address to transfer to.",
          "value": "The amount to be transferred."
        }
      },
      "transferFrom(address,address,uint256)": {
        "details": "Transfer tokens from one address to another. Note that while this function emits an Approval event, this is not required as per the specification, and other compliant implementations may not emit the event.",
        "params": {
          "from": "address The address which you want to send tokens from",
          "to": "address The address which you want to transfer to",
          "value": "uint256 the amount of tokens to be transferred"
        }
      },
      "transferOwnership(address)": {
        "details": "Allows the current owner to transfer control of the contract to a newOwner.",
        "params": {
          "newOwner": "The address to transfer ownership to."
        }
      }
    },
    "title": "Ocean Protocol ERC20 Token Contract"
  },
  "userdoc": {
    "methods": {
      "renounceOwnership()": {
        "notice": "Renouncing to ownership will leave the contract without an owner. It will not be possible to call the functions with the `onlyOwner` modifier anymore."
      }
    }
  }
}