{
  "contractName": "CommitReveal",
  "abi": [
    {
      "anonymous": false,
      "inputs": [
        {
          "indexed": false,
          "name": "commitmentId",
          "type": "bytes32"
        },
        {
          "indexed": false,
          "name": "commitTime",
          "type": "uint256"
        },
        {
          "indexed": false,
          "name": "revealingTime",
          "type": "uint256"
        },
        {
          "indexed": false,
          "name": "voters",
          "type": "address[]"
        }
      ],
      "name": "CommitmentInitialized",
      "type": "event"
    },
    {
      "anonymous": false,
      "inputs": [
        {
          "indexed": false,
          "name": "commitmentId",
          "type": "bytes32"
        },
        {
          "indexed": false,
          "name": "voter",
          "type": "address"
        }
      ],
      "name": "CommitmentCommitted",
      "type": "event"
    },
    {
      "anonymous": false,
      "inputs": [
        {
          "indexed": false,
          "name": "commitmentId",
          "type": "bytes32"
        }
      ],
      "name": "CommitmentTimedout",
      "type": "event"
    },
    {
      "anonymous": false,
      "inputs": [
        {
          "indexed": false,
          "name": "commitmentId",
          "type": "bytes32"
        },
        {
          "indexed": false,
          "name": "voter",
          "type": "address"
        },
        {
          "indexed": false,
          "name": "revealingTime",
          "type": "uint256"
        }
      ],
      "name": "CommitmentRevealed",
      "type": "event"
    },
    {
      "anonymous": false,
      "inputs": [
        {
          "indexed": false,
          "name": "losers",
          "type": "address[]"
        },
        {
          "indexed": false,
          "name": "state",
          "type": "int8"
        }
      ],
      "name": "CommitmentResult",
      "type": "event"
    },
    {
      "constant": false,
      "inputs": [
        {
          "name": "_commitmentId",
          "type": "bytes32"
        },
        {
          "name": "_commitTimeout",
          "type": "uint256"
        },
        {
          "name": "_revealTimeout",
          "type": "uint256"
        },
        {
          "name": "_voters",
          "type": "address[]"
        }
      ],
      "name": "setup",
      "outputs": [
        {
          "name": "",
          "type": "bool"
        }
      ],
      "payable": false,
      "stateMutability": "nonpayable",
      "type": "function"
    },
    {
      "constant": false,
      "inputs": [
        {
          "name": "_commitmentId",
          "type": "bytes32"
        },
        {
          "name": "_hash",
          "type": "bytes32"
        }
      ],
      "name": "commit",
      "outputs": [
        {
          "name": "",
          "type": "bool"
        }
      ],
      "payable": false,
      "stateMutability": "nonpayable",
      "type": "function"
    },
    {
      "constant": false,
      "inputs": [
        {
          "name": "_commitmentId",
          "type": "bytes32"
        },
        {
          "name": "_value",
          "type": "string"
        },
        {
          "name": "_vote",
          "type": "bool"
        }
      ],
      "name": "reveal",
      "outputs": [
        {
          "name": "",
          "type": "bool"
        }
      ],
      "payable": false,
      "stateMutability": "nonpayable",
      "type": "function"
    },
    {
      "constant": false,
      "inputs": [
        {
          "name": "_commitmentId",
          "type": "bytes32"
        },
        {
          "name": "verifiers",
          "type": "address[]"
        }
      ],
      "name": "getCommitmentResult",
      "outputs": [
        {
          "name": "",
          "type": "address[]"
        },
        {
          "name": "",
          "type": "int8"
        }
      ],
      "payable": false,
      "stateMutability": "nonpayable",
      "type": "function"
    },
    {
      "constant": true,
      "inputs": [
        {
          "name": "_commitmentId",
          "type": "bytes32"
        }
      ],
      "name": "isCommitmentTimedout",
      "outputs": [
        {
          "name": "",
          "type": "bool"
        }
      ],
      "payable": false,
      "stateMutability": "view",
      "type": "function"
    },
    {
      "constant": true,
      "inputs": [
        {
          "name": "_commitmentId",
          "type": "bytes32"
        }
      ],
      "name": "getRevealTimeout",
      "outputs": [
        {
          "name": "",
          "type": "uint256"
        }
      ],
      "payable": false,
      "stateMutability": "view",
      "type": "function"
    },
    {
      "constant": true,
      "inputs": [
        {
          "name": "_commitmentId",
          "type": "bytes32"
        }
      ],
      "name": "getCommitTimeout",
      "outputs": [
        {
          "name": "",
          "type": "uint256"
        }
      ],
      "payable": false,
      "stateMutability": "view",
      "type": "function"
    },
    {
      "constant": true,
      "inputs": [
        {
          "name": "_commitmentId",
          "type": "bytes32"
        }
      ],
      "name": "canReveal",
      "outputs": [
        {
          "name": "",
          "type": "bool"
        }
      ],
      "payable": false,
      "stateMutability": "view",
      "type": "function"
    },
    {
      "constant": true,
      "inputs": [
        {
          "name": "_commitmentId",
          "type": "bytes32"
        }
      ],
      "name": "getCommitRevealResult",
      "outputs": [
        {
          "name": "",
          "type": "address[]"
        },
        {
          "name": "",
          "type": "int8"
        }
      ],
      "payable": false,
      "stateMutability": "view",
      "type": "function"
    }
  ],
  "bytecode": "0x608060405234801561001057600080fd5b506117ff806100206000396000f3fe6080604052600436106100985763ffffffff7c01000000000000000000000000000000000000000000000000000000006000350416630bf642f8811461009d5780637baa6bef146100d9578063c63a924b146101a9578063cbfc229a146101d3578063d78d86f01461025e578063e3ce094d14610321578063e42d0d3414610351578063ed1865821461037b578063f64b2f5d146103a5575b600080fd5b3480156100a957600080fd5b506100c7600480360360208110156100c057600080fd5b503561045c565b60408051918252519081900360200190f35b3480156100e557600080fd5b50610195600480360360608110156100fc57600080fd5b8135919081019060408101602082013564010000000081111561011e57600080fd5b82018360208201111561013057600080fd5b8035906020019184600183028401116401000000008311171561015257600080fd5b91908080601f0160208091040260200160405190810160405280939291908181526020018383808284376000920191909152509295505050503515159050610475565b604080519115158252519081900360200190f35b3480156101b557600080fd5b506100c7600480360360208110156101cc57600080fd5b50356108b7565b3480156101df57600080fd5b506101fd600480360360208110156101f657600080fd5b50356108cc565b60405180806020018360000b60000b8152602001828103825284818151815260200191508051906020019060200280838360005b83811015610249578181015183820152602001610231565b50505050905001935050505060405180910390f35b34801561026a57600080fd5b506101956004803603608081101561028157600080fd5b813591602081013591604082013591908101906080810160608201356401000000008111156102af57600080fd5b8201836020820111156102c157600080fd5b803590602001918460208302840111640100000000831117156102e357600080fd5b9190808060200260200160405190810160405280939291908181526020018383602002808284376000920191909152509295506109dc945050505050565b34801561032d57600080fd5b506101956004803603604081101561034457600080fd5b5080359060200135610c36565b34801561035d57600080fd5b506101956004803603602081101561037457600080fd5b5035610ebb565b34801561038757600080fd5b506101956004803603602081101561039e57600080fd5b5035610ee3565b3480156103b157600080fd5b506101fd600480360360408110156103c857600080fd5b813591908101906040810160208201356401000000008111156103ea57600080fd5b8201836020820111156103fc57600080fd5b8035906020019184602083028401116401000000008311171561041e57600080fd5b919080806020026020016040519081016040528093929190818152602001838360200280828437600092019190915250929550610efc945050505050565b600081815260016020819052604090912001545b919050565b60008381805b6000838152600160205260409020600401548110156104dc5760008381526001602052604090206004018054339190839081106104b457fe5b600091825260209091200154600160a060020a031614156104d457600191505b60010161047b565b50801515610534576040805160e560020a62461bcd02815260206004820152601560248201527f696e76616c696420766f74657220616464726573730000000000000000000000604482015290519081900360640190fd5b6000868152600160205260409020600201544211610580576040805187815290517fa5d31395e65249bbbd2210998d668771201873a343379114aeaa3c02a22c50579181900360200190a15b60008681526020818152604080832033845290915290205460ff1615156105f1576040805160e560020a62461bcd02815260206004820152601a60248201527f436f6d6d69746d656e7420646f6573206e6f7420657869737421000000000000604482015290519081900360640190fd5b600086815260208181526040808320338452909152902054610100900460ff1615610666576040805160e560020a62461bcd02815260206004820152601860248201527f496e6469636174696e67207265706c61792061747461636b0000000000000000604482015290519081900360640190fd5b6000868152600160205260409020600201544210801561069757506000868152600160208190526040909120015442115b15156106ed576040805160e560020a62461bcd02815260206004820152601660248201527f696e76616c69642072657665616c2074696d696e672100000000000000000000604482015290519081900360640190fd5b83856040516020018083151515157f010000000000000000000000000000000000000000000000000000000000000002815260010182805190602001908083835b6020831061074d5780518252601f19909201916020918201910161072e565b51815160209384036101000a60001901801990921691161790526040805192909401828103601f19018352845281519181019190912060008d81528083528481203382529092529290206001015490911493506107f892505050576040805160e560020a62461bcd02815260206004820152601b60248201527f696e76616c696420636f6d6d69746d656e7420707265696d6167650000000000604482015290519081900360640190fd5b6000868152602081815260408083203384528252909120805462ff000019166201000087151502178155865161083692600290920191880190611699565b5060008681526020818152604080832033808552908352818420805461ff00191661010017905589845260018352928190206002015481518a8152928301939093528181019290925290517fe3973b172f2eb45901e0f85d0ae01add9ac36b90b45ef86741f134dacbac98269181900360600190a150600195945050505050565b60009081526001602052604090206002015490565b6000818152600360205260408120546060919060ff1615610966576003600084815260200190815260200160002060010160018180548060200260200160405190810160405280929190818152602001828054801561095457602002820191906000526020600020905b8154600160a060020a03168152600190910190602001808311610936575b509397509395506109d7945050505050565b600083815260036020908152604080832060010180548251818502810185019093528083529093928491908301828280156109ca57602002820191906000526020600020905b8154600160a060020a031681526001909101906020018083116109ac575b5093975093955050505050505b915091565b600084815260016020526040812054859060ff1615610a45576040805160e560020a62461bcd02815260206004820152601960248201527f436f6d6d69746d656e7420616c72656164792065786973747300000000000000604482015290519081900360640190fd5b60148510158015610a57575060148410155b1515610ad3576040805160e560020a62461bcd02815260206004820152602260248201527f496e6469636174696e6720696e76616c696420636f6d6d69742074696d656f7560448201527f7473000000000000000000000000000000000000000000000000000000000000606482015290519081900360840190fd5b6040805160a0810182526001808252428881016020808501918252898b019092018486019081523360608601908152608086018a815260008e8152868652979097208651815460ff1916901515178155925194830194909455516002820155915160038301805473ffffffffffffffffffffffffffffffffffffffff1916600160a060020a039092169190911790559251805192939192610b7a9260048501920190611717565b50905050600060026000888152602001908152602001600020819055507f25272dc831f762a574663f3af4940897dc9ebbd42898d0178cecb839c005b2c9864287014287890101866040518085815260200184815260200183815260200180602001828103825283818151815260200191508051906020019060200280838360005b83811015610c14578181015183820152602001610bfc565b505050509050019550505050505060405180910390a150600195945050505050565b60008281805b600083815260016020526040902060040154811015610c9d576000838152600160205260409020600401805433919083908110610c7557fe5b600091825260209091200154600160a060020a03161415610c9557600191505b600101610c3c565b50801515610cf5576040805160e560020a62461bcd02815260206004820152601560248201527f696e76616c696420766f74657220616464726573730000000000000000000000604482015290519081900360640190fd5b60008581526020818152604080832033845290915290205460ff1615610d65576040805160e560020a62461bcd02815260206004820152601360248201527f61766f6964207265706c61792061747461636b00000000000000000000000000604482015290519081900360640190fd5b600085815260016020819052604090912001544210610dce576040805160e560020a62461bcd02815260206004820152601360248201527f496e76616c696420636f6d6d69742074696d6500000000000000000000000000604482015290519081900360640190fd5b6040805160a081018252600180825260006020808401828152848601838152606086018b815287518581528085018952608088019081528d8652858552888620338752855297909420865181549351925160ff199094169015151761ff001916610100921515929092029190911762ff00001916620100009215159290920291909117815591519282019290925592518051929392610e739260028501920190611699565b50506040805187815233602082015281517f4d9f1a924d7dac6c12b755013cf3c908ee02b7a98f50a5574b5bd1fdae418e0693509081900390910190a1506001949350505050565b6000818152600160205260408120600201544210610edb57506001610470565b506000919050565b6000908152600160208190526040909120015442101590565b600082815260016020526040812060030154606091908490600160a060020a03163314610f73576040805160e560020a62461bcd02815260206004820152601860248201527f696e76616c696420636f6d6d69746d656e74206f776e65720000000000000000604482015290519081900360640190fd5b6000858152600160205260409020600201548590421015610fde576040805160e560020a62461bcd02815260206004820152601b60248201527f636f6d6d69746d656e74206e6f742072657665616c6564207965740000000000604482015290519081900360640190fd5b600080805b875181101561144b57600089815260208190526040812089519091908a908490811061100b57fe5b90602001906020020151600160a060020a0316600160a060020a0316815260200190815260200160002060000160029054906101000a900460ff166000808b815260200190815260200160002060008a8481518110151561106857fe5b90602001906020020151600160a060020a0316600160a060020a031681526020019081526020016000206002016040516020018083151515157f01000000000000000000000000000000000000000000000000000000000000000281526001018280546001816001161561010002031660029004801561111f5780601f106110fd57610100808354040283529182019161111f565b820191906000526020600020905b81548152906001019060200180831161110b575b505092505050604051602081830303815290604052805190602001206000808b815260200190815260200160002060008a8481518110151561115d57fe5b6020908102909101810151600160a060020a0316825281019190915260400160002060010154146111f757600089815260036020526040902088516001909101908990839081106111aa57fe5b602090810291909101810151825460018101845560009384529190922001805473ffffffffffffffffffffffffffffffffffffffff1916600160a060020a03909216919091179055611443565b600288511015801561120c5750600188510381105b1561144357600089815260208190526040812089519091908a906001850190811061123357fe5b90602001906020020151600160a060020a0316600160a060020a0316815260200190815260200160002060000160029054906101000a900460ff1615156000808b815260200190815260200160002060008a8481518110151561129257fe5b6020908102909101810151600160a060020a031682528101919091526040016000205460ff6201000090910416151514801561136b5750600089815260208190526040812089519091908a90600185019081106112eb57fe5b90602001906020020151600160a060020a0316600160a060020a03168152602001908152602001600020600101546000808b815260200190815260200160002060008a8481518110151561133b57fe5b90602001906020020151600160a060020a0316600160a060020a0316815260200190815260200160002060010154145b156113e057600089815260208190526040812089519091908a908490811061138f57fe5b6020908102909101810151600160a060020a031682528101919091526040016000205460ff6201000090910416156113d057600292909201916001016113db565b600291909101906001015b611443565b600089815260208190526040812089519091908a90849081106113ff57fe5b6020908102909101810151600160a060020a031682528101919091526040016000205460ff62010000909104161561143c57600183019250611443565b6001820191505b600101610fe3565b508082111561157b577f6c9e8e085d4d93b965b017c91250807ffbb37273de769ea87063fe88b69a5b3c600360008a8152602001908152602001600020600101600160405180806020018360000b815260200182810382528481815481526020019150805480156114e557602002820191906000526020600020905b8154600160a060020a031681526001909101906020018083116114c7575b5050935050505060405180910390a1600088815260036020908152604091829020805460ff19166001908117825590810180548451818502810185019095528085529093919284919083018282801561156757602002820191906000526020600020905b8154600160a060020a03168152600190910190602001808311611549575b50939b509399506116909650505050505050565b6000888152600360209081526040808320805460ff19168155815192830184905281835260010180549183018290527f6c9e8e085d4d93b965b017c91250807ffbb37273de769ea87063fe88b69a5b3c9390929091819060608201908590801561160e57602002820191906000526020600020905b8154600160a060020a031681526001909101906020018083116115f0575b5050935050505060405180910390a16000888152600360209081526040808320600101805482518185028101850190935280835290939284919083018282801561168157602002820191906000526020600020905b8154600160a060020a03168152600190910190602001808311611663575b50939b50939950505050505050505b50509250929050565b828054600181600116156101000203166002900490600052602060002090601f016020900481019282601f106116da57805160ff1916838001178555611707565b82800160010185558215611707579182015b828111156117075782518255916020019190600101906116ec565b50611713929150611785565b5090565b828054828255906000526020600020908101928215611779579160200282015b82811115611779578251825473ffffffffffffffffffffffffffffffffffffffff1916600160a060020a03909116178255602090920191600190910190611737565b506117139291506117a2565b61179f91905b80821115611713576000815560010161178b565b90565b61179f91905b8082111561171357805473ffffffffffffffffffffffffffffffffffffffff191681556001016117a856fea165627a7a72305820a7bfba22f52a934899ea610416523ba5338a815d95a1026158fc62d8527756320029",
  "source": "pragma solidity ^0.5.0;\n\n/**\n@title Fitchain Commit Reveal Scheme\n@author Team: Fitchain Team\n*/\n\ncontract CommitReveal {\n\n    struct Commitment{\n        bool exist;\n        bool isRevealed;\n        bool vote;\n        bytes32 hash;\n        string value;\n    }\n\n    struct Setting{\n        bool exist;\n        uint256 commitTimeout;\n        uint256 revealTimeout;\n        address owner;\n        address[] voters;\n    }\n\n    struct Result{\n        bool state;\n        address[] losers;\n    }\n\n    mapping(bytes32 => mapping(address => Commitment)) commitments;\n    mapping(bytes32 => Setting) settings;\n    mapping(bytes32 => uint256) commitmentsCount;\n    mapping(bytes32 => Result) results;\n\n    // events\n    event CommitmentInitialized(bytes32 commitmentId, uint256 commitTime, uint256 revealingTime, address[] voters);\n    event CommitmentCommitted(bytes32 commitmentId, address voter);\n    event CommitmentTimedout(bytes32 commitmentId);\n    event CommitmentRevealed(bytes32 commitmentId, address voter, uint256 revealingTime);\n    event CommitmentResult(address[] losers, int8 state);\n    // modifiers\n    modifier onlyAfterReveal(bytes32 commitmentId){\n        require(settings[commitmentId].revealTimeout <= block.timestamp, 'commitment not revealed yet');\n        _;\n    }\n\n    modifier onlyCommitmentVoters(bytes32 commitmentId) {\n        bool exists = false;\n        for(uint256 i=0; i < settings[commitmentId].voters.length; i++){\n            if(settings[commitmentId].voters[i] == msg.sender) exists = true;\n        }\n        require(exists, 'invalid voter address');\n        _;\n    }\n\n    modifier onlyCommitmentOwner(bytes32 commitmentId){\n        require(settings[commitmentId].owner == msg.sender, 'invalid commitment owner');\n        _;\n    }\n\n    modifier onlyCommitmentNotExist(bytes32 commitmentId){\n        require(!settings[commitmentId].exist, 'Commitment already exists');\n        _;\n    }\n\n    function setup(bytes32 _commitmentId, uint256 _commitTimeout, uint256 _revealTimeout, address[] memory _voters) public onlyCommitmentNotExist(_commitmentId) returns(bool){\n        require(_commitTimeout >= 20 && _revealTimeout >= 20, 'Indicating invalid commit timeouts');\n        settings[_commitmentId] = Setting(true, _commitTimeout + block.timestamp, _commitTimeout + _revealTimeout + block.timestamp, msg.sender, _voters);\n        commitmentsCount[_commitmentId] = 0;\n        emit CommitmentInitialized(_commitmentId, _commitTimeout + block.timestamp,  _commitTimeout + _revealTimeout + block.timestamp, _voters);\n        return true;\n    }\n\n    function commit(bytes32 _commitmentId, bytes32 _hash) public onlyCommitmentVoters(_commitmentId) returns(bool){\n        require(!commitments[_commitmentId][msg.sender].exist, 'avoid replay attack');\n        require(settings[_commitmentId].commitTimeout > block.timestamp, 'Invalid commit time');\n        commitments[_commitmentId][msg.sender] = Commitment(true, false, false,_hash, new string(0));\n        emit CommitmentCommitted(_commitmentId, msg.sender);\n        return true;\n    }\n\n    function reveal(bytes32 _commitmentId, string memory _value, bool _vote) public onlyCommitmentVoters(_commitmentId) returns(bool){\n        if(settings[_commitmentId].revealTimeout >= block.timestamp) emit CommitmentTimedout(_commitmentId);\n        require(commitments[_commitmentId][msg.sender].exist, 'Commitment does not exist!');\n        require(!commitments[_commitmentId][msg.sender].isRevealed, 'Indicating replay attack');\n        require(settings[_commitmentId].revealTimeout > block.timestamp && settings[_commitmentId].commitTimeout < block.timestamp, 'invalid reveal timing!');\n        require(commitments[_commitmentId][msg.sender].hash == keccak256(abi.encodePacked(_vote, _value)), 'invalid commitment preimage');\n        commitments[_commitmentId][msg.sender].vote = _vote;\n        commitments[_commitmentId][msg.sender].value = _value;\n        commitments[_commitmentId][msg.sender].isRevealed = true;\n        emit CommitmentRevealed(_commitmentId, msg.sender, settings[_commitmentId].revealTimeout);\n        return true;\n    }\n\n    function getCommitmentResult(bytes32 _commitmentId, address[] memory verifiers) public onlyCommitmentOwner(_commitmentId) onlyAfterReveal(_commitmentId) returns(address[] memory, int8){\n        uint256 votingUp = 0;\n        uint256 votingDown = 0;\n        for(uint256 i=0; i < verifiers.length; i++){\n            // (inconsistent commitment)\n            if(commitments[_commitmentId][verifiers[i]].hash != keccak256(abi.encodePacked(commitments[_commitmentId][verifiers[i]].vote, commitments[_commitmentId][verifiers[i]].value)))\n            results[_commitmentId].losers.push(verifiers[i]);\n            else{\n                if(verifiers.length >=2 && i < verifiers.length-1){\n                    if(commitments[_commitmentId][verifiers[i]].vote == commitments[_commitmentId][verifiers[i+1]].vote &&\n                    commitments[_commitmentId][verifiers[i]].hash == commitments[_commitmentId][verifiers[i+1]].hash){\n                        if(commitments[_commitmentId][verifiers[i]].vote){\n                            votingUp +=2;\n                            i++;\n                        }else{\n                            votingDown +=2;\n                            i++;\n                        }\n                    }else{\n                        if(commitments[_commitmentId][verifiers[i]].vote){\n                            votingUp +=1;\n                        }else{\n                            votingDown +=1;\n                        }\n                    }\n                }\n            }\n        }\n        if(votingUp > votingDown) {\n            emit CommitmentResult(results[_commitmentId].losers, 1);\n            results[_commitmentId].state = true;\n            // slash losers\n            return (results[_commitmentId].losers, 1);\n        }\n        results[_commitmentId].state = false;\n        // slash data provider and losers (2nd item in the tuple winners)\n        emit CommitmentResult(results[_commitmentId].losers, 0);\n        return (results[_commitmentId].losers, 0);\n    }\n\n    function isCommitmentTimedout(bytes32 _commitmentId) public view returns(bool){\n        if(settings[_commitmentId].revealTimeout <= block.timestamp){\n            return true;\n        }\n        return false;\n    }\n\n    function getRevealTimeout(bytes32 _commitmentId) public view returns(uint256) {\n        return settings[_commitmentId].revealTimeout;\n    }\n\n    function getCommitTimeout(bytes32 _commitmentId) public view returns(uint256) {\n        return settings[_commitmentId].commitTimeout;\n    }\n\n    function canReveal(bytes32 _commitmentId) public view returns(bool) {\n        return (settings[_commitmentId].commitTimeout <= block.timestamp);\n    }\n    function getCommitRevealResult(bytes32 _commitmentId) public view returns(address[] memory, int8) {\n        if(results[_commitmentId].state) return (results[_commitmentId].losers, 1);\n        return (results[_commitmentId].losers, 0);\n    }\n}\n",
  "sourcePath": "/Users/fancy/Documents/Ocean Protocol/research/16-research-repo/research/1-fitchain-analysis/fitchain-contracts/contracts/CommitReveal.sol",
  "compiler": {
    "name": "solc",
    "version": "0.5.0+commit.1d4f565a.Emscripten.clang"
  },
  "schemaVersion": "3.0.1",
  "updatedAt": "2019-01-24T02:15:21.561Z",
  "devdoc": {
    "author": "Team: Fitchain Team",
    "methods": {},
    "title": "Fitchain Commit Reveal Scheme"
  },
  "userdoc": {
    "methods": {}
  }
}