{
  "contractName": "FitchainModel",
  "abi": [
    {
      "inputs": [
        {
          "name": "_minStake",
          "type": "uint256"
        },
        {
          "name": "_gossiperContractAddress",
          "type": "address"
        },
        {
          "name": "_verifierContractAddress",
          "type": "address"
        },
        {
          "name": "_stakingAddress",
          "type": "address"
        }
      ],
      "payable": false,
      "stateMutability": "nonpayable",
      "type": "constructor"
    },
    {
      "anonymous": false,
      "inputs": [
        {
          "indexed": false,
          "name": "modelId",
          "type": "bytes32"
        },
        {
          "indexed": false,
          "name": "owner",
          "type": "address"
        },
        {
          "indexed": false,
          "name": "state",
          "type": "bool"
        }
      ],
      "name": "ModelCreated",
      "type": "event"
    },
    {
      "anonymous": false,
      "inputs": [
        {
          "indexed": false,
          "name": "modelId",
          "type": "bytes32"
        },
        {
          "indexed": false,
          "name": "to",
          "type": "address"
        },
        {
          "indexed": false,
          "name": "amount",
          "type": "uint256"
        }
      ],
      "name": "StakeReleased",
      "type": "event"
    },
    {
      "anonymous": false,
      "inputs": [
        {
          "indexed": false,
          "name": "modelId",
          "type": "bytes32"
        },
        {
          "indexed": false,
          "name": "location",
          "type": "string"
        },
        {
          "indexed": false,
          "name": "format",
          "type": "uint256"
        },
        {
          "indexed": false,
          "name": "modelType",
          "type": "string"
        },
        {
          "indexed": false,
          "name": "inputSignature",
          "type": "string"
        }
      ],
      "name": "ModelPublished",
      "type": "event"
    },
    {
      "anonymous": false,
      "inputs": [
        {
          "indexed": false,
          "name": "modelId",
          "type": "bytes32"
        },
        {
          "indexed": false,
          "name": "kVerifiers",
          "type": "uint256"
        },
        {
          "indexed": false,
          "name": "state",
          "type": "bool"
        }
      ],
      "name": "ModelVerificationStarted",
      "type": "event"
    },
    {
      "constant": false,
      "inputs": [
        {
          "name": "modelId",
          "type": "bytes32"
        },
        {
          "name": "paymentRecieptId",
          "type": "bytes32"
        },
        {
          "name": "m",
          "type": "uint256"
        },
        {
          "name": "n",
          "type": "uint256"
        }
      ],
      "name": "createModel",
      "outputs": [
        {
          "name": "",
          "type": "bool"
        }
      ],
      "payable": false,
      "stateMutability": "nonpayable",
      "type": "function"
    },
    {
      "constant": false,
      "inputs": [
        {
          "name": "modelId",
          "type": "bytes32"
        },
        {
          "name": "_location",
          "type": "string"
        },
        {
          "name": "_format",
          "type": "uint256"
        },
        {
          "name": "_modelType",
          "type": "string"
        },
        {
          "name": "_inputSignature",
          "type": "string"
        }
      ],
      "name": "publishModel",
      "outputs": [
        {
          "name": "",
          "type": "bool"
        }
      ],
      "payable": false,
      "stateMutability": "nonpayable",
      "type": "function"
    },
    {
      "constant": false,
      "inputs": [
        {
          "name": "modelId",
          "type": "bytes32"
        },
        {
          "name": "kVerifiers",
          "type": "uint256"
        },
        {
          "name": "wallTime",
          "type": "uint256"
        },
        {
          "name": "testingData",
          "type": "bytes32"
        }
      ],
      "name": "verifyModel",
      "outputs": [
        {
          "name": "",
          "type": "bool"
        }
      ],
      "payable": false,
      "stateMutability": "nonpayable",
      "type": "function"
    },
    {
      "constant": false,
      "inputs": [
        {
          "name": "modelId",
          "type": "bytes32"
        }
      ],
      "name": "releaseModelStake",
      "outputs": [
        {
          "name": "",
          "type": "bool"
        }
      ],
      "payable": false,
      "stateMutability": "nonpayable",
      "type": "function"
    },
    {
      "constant": true,
      "inputs": [
        {
          "name": "modelId",
          "type": "bytes32"
        }
      ],
      "name": "isModelTrained",
      "outputs": [
        {
          "name": "",
          "type": "bool"
        }
      ],
      "payable": false,
      "stateMutability": "view",
      "type": "function"
    },
    {
      "constant": true,
      "inputs": [
        {
          "name": "modelId",
          "type": "bytes32"
        }
      ],
      "name": "isModelVerified",
      "outputs": [
        {
          "name": "",
          "type": "bool"
        }
      ],
      "payable": false,
      "stateMutability": "view",
      "type": "function"
    },
    {
      "constant": true,
      "inputs": [
        {
          "name": "modelId",
          "type": "bytes32"
        }
      ],
      "name": "getModelKVerifiersCount",
      "outputs": [
        {
          "name": "",
          "type": "uint256"
        }
      ],
      "payable": false,
      "stateMutability": "view",
      "type": "function"
    },
    {
      "constant": true,
      "inputs": [
        {
          "name": "modelId",
          "type": "bytes32"
        }
      ],
      "name": "getModelKGossipersCount",
      "outputs": [
        {
          "name": "",
          "type": "uint256"
        }
      ],
      "payable": false,
      "stateMutability": "view",
      "type": "function"
    },
    {
      "constant": true,
      "inputs": [
        {
          "name": "modelId",
          "type": "bytes32"
        }
      ],
      "name": "getModelChallengeCount",
      "outputs": [
        {
          "name": "",
          "type": "uint256"
        }
      ],
      "payable": false,
      "stateMutability": "view",
      "type": "function"
    },
    {
      "constant": false,
      "inputs": [
        {
          "name": "modelId",
          "type": "bytes32"
        }
      ],
      "name": "setModelTrained",
      "outputs": [
        {
          "name": "",
          "type": "bool"
        }
      ],
      "payable": false,
      "stateMutability": "nonpayable",
      "type": "function"
    },
    {
      "constant": false,
      "inputs": [
        {
          "name": "modelId",
          "type": "bytes32"
        }
      ],
      "name": "setModelVerified",
      "outputs": [],
      "payable": false,
      "stateMutability": "nonpayable",
      "type": "function"
    }
  ],
  "bytecode": "0x608060405234801561001057600080fd5b50604051608080611fac8339810180604052608081101561003057600080fd5b5080516020820151604083015160609093015191929091600160a060020a03831615156100e457604080517f08c379a000000000000000000000000000000000000000000000000000000000815260206004820152602160248201527f696e76616c696420676f73736970657220636f6e74726163742061646472657360448201527f7300000000000000000000000000000000000000000000000000000000000000606482015290519081900360840190fd5b600160a060020a038216151561018157604080517f08c379a000000000000000000000000000000000000000000000000000000000815260206004820152602160248201527f696e76616c696420766572696669657220636f6e74726163742061646472657360448201527f7300000000000000000000000000000000000000000000000000000000000000606482015290519081900360840190fd5b600160a060020a03811615156101f857604080517f08c379a000000000000000000000000000000000000000000000000000000000815260206004820181905260248201527f696e76616c6964207374616b696e6720636f6e74726163742061646472657373604482015290519081900360640190fd5b60028054600160a060020a03948516600160a060020a031991821617909155600380549385169382169390931790925560048054919093169116179055600155611d65806102476000396000f3fe6080604052600436106100955763ffffffff60e060020a60003504166304ead945811461009a5780630cd2f251146100d6578063381ff75f14610100578063422a679a146102e457806342d5e265146103205780637e95d6b41461034c578063853565ac146103765780639e8994a5146103a0578063a35fd95e146103ca578063ae31ad33146103f4578063b695cb5b1461041e575b600080fd5b3480156100a657600080fd5b506100c4600480360360208110156100bd57600080fd5b503561045a565b60408051918252519081900360200190f35b3480156100e257600080fd5b506100c4600480360360208110156100f957600080fd5b50356104c9565b34801561010c57600080fd5b506102d0600480360360a081101561012357600080fd5b8135919081019060408101602082013564010000000081111561014557600080fd5b82018360208201111561015757600080fd5b8035906020019184600183028401116401000000008311171561017957600080fd5b91908080601f016020809104026020016040519081016040528093929190818152602001838380828437600092019190915250929584359590949093506040810192506020013590506401000000008111156101d457600080fd5b8201836020820111156101e657600080fd5b8035906020019184600183028401116401000000008311171561020857600080fd5b91908080601f016020809104026020016040519081016040528093929190818152602001838380828437600092019190915250929594936020810193503591505064010000000081111561025b57600080fd5b82018360208201111561026d57600080fd5b8035906020019184600183028401116401000000008311171561028f57600080fd5b91908080601f016020809104026020016040519081016040528093929190818152602001838380828437600092019190915250929550610538945050505050565b604080519115158252519081900360200190f35b3480156102f057600080fd5b506102d06004803603608081101561030757600080fd5b50803590602081013590604081013590606001356107a2565b34801561032c57600080fd5b5061034a6004803603602081101561034357600080fd5b5035610bbe565b005b34801561035857600080fd5b506102d06004803603602081101561036f57600080fd5b5035611329565b34801561038257600080fd5b506102d06004803603602081101561039957600080fd5b50356114b1565b3480156103ac57600080fd5b506100c4600480360360208110156103c357600080fd5b5035611525565b3480156103d657600080fd5b506102d0600480360360208110156103ed57600080fd5b5035611594565b34801561040057600080fd5b506102d06004803603602081101561041757600080fd5b5035611609565b34801561042a57600080fd5b506102d06004803603608081101561044157600080fd5b5080359060208101359060408101359060600135611816565b600081815260208190526040812054829060ff1615156104b2576040805160e560020a62461bcd0281526020600482015260156024820152600080516020611d1a833981519152604482015290519081900360640190fd5b505060009081526020819052604090206001015490565b600081815260208190526040812054829060ff161515610521576040805160e560020a62461bcd0281526020600482015260156024820152600080516020611d1a833981519152604482015290519081900360640190fd5b505060009081526020819052604090206008015490565b6000858152602081905260408120600401548690600160a060020a031633146105ab576040805160e560020a62461bcd02815260206004820152601360248201527f696e76616c6964206d6f64656c206f776e657200000000000000000000000000604482015290519081900360640190fd5b60008781526020818152604090912087516105ce92600590920191890190611c44565b506000878152602081815260409091206003810187905585516105f992600a90920191870190611c44565b50600087815260208181526040909120845161061d92600990920191860190611c44565b507f5bc828c20dcd202d870f9ce6302b9753f2e84c61628ad74435c563ecb4538c85878787878760405180868152602001806020018581526020018060200180602001848103845288818151815260200191508051906020019080838360005b8381101561069557818101518382015260200161067d565b50505050905090810190601f1680156106c25780820380516001836020036101000a031916815260200191505b50848103835286518152865160209182019188019080838360005b838110156106f55781810151838201526020016106dd565b50505050905090810190601f1680156107225780820380516001836020036101000a031916815260200191505b50848103825285518152855160209182019187019080838360005b8381101561075557818101518382015260200161073d565b50505050905090810190601f1680156107825780820380516001836020036101000a031916815260200191505b509850505050505050505060405180910390a15060019695505050505050565b600084815260208190526040812054859060ff161561080b576040805160e560020a62461bcd02815260206004820152601360248201527f4d6f64656c20616c726561647920657869737400000000000000000000000000604482015290519081900360640190fd5b60048054600154604080517f8c610c8d0000000000000000000000000000000000000000000000000000000081529384018a9052336024850152604484019190915251600160a060020a0390911691638c610c8d9160648083019260209291908290030181600087803b15801561088157600080fd5b505af1158015610895573d6000803e3d6000fd5b505050506040513d60208110156108ab57600080fd5b505115610b7157604080516101a0810182526001815260006020808301829052828401829052606083018290526080830187905260a083018290523360c08401528351828152908101909352909160e08301915081526020808201889052600060408084018290528051828152928301905260609092019150815260408051600080825260208281019093529190920191905081526040805160008082526020828101909352919092019190509052600087815260208181526040918290208351815485840151948601511515620100000262ff0000199515156101000261ff001993151560ff1990931692909217929092161793909316929092178255606083015160018301556080830151600283015560a0830151600383015560c0830151600483018054600160a060020a0390921673ffffffffffffffffffffffffffffffffffffffff1990921691909117905560e08301518051610a139260058501920190611c44565b50610100820151600682015561012082015160078201556101408201518051610a46916008840191602090910190611cc2565b506101608201518051610a63916009840191602090910190611c44565b506101808201518051610a8091600a840191602090910190611c44565b5050600254604080517f510faf3f000000000000000000000000000000000000000000000000000000008152600481018a905260248101879052604481018890523060648201529051600160a060020a03909216925063510faf3f9160848083019260209291908290030181600087803b158015610afd57600080fd5b505af1158015610b11573d6000803e3d6000fd5b505050506040513d6020811015610b2757600080fd5b50506040805187815233602082015260018183015290517fc166e36a0f999cf88ba82af38094f0b13920dfa6496c4c5cedd0c2c067c5e31d9181900360600190a160019150610bb5565b6040805187815233602082015260008183015290517fc166e36a0f999cf88ba82af38094f0b13920dfa6496c4c5cedd0c2c067c5e31d9181900360600190a1600091505b50949350505050565b600081815260208181526040918290206005018054835160026001831615610100026000190190921691909104601f81018490048402820184019094528381528493606093919291830182828015610c575780601f10610c2c57610100808354040283529160200191610c57565b820191906000526020600020905b815481529060010190602001808311610c3a57829003601f168201915b505050505090508051600014151515610cba576040805160e560020a62461bcd02815260206004820152601060248201527f6d6f64656c206e6f742065786973747300000000000000000000000000000000604482015290519081900360640190fd5b600082815260208190526040902054610100900460ff161515610d27576040805160e560020a62461bcd02815260206004820152601960248201527f4d6f64656c206973206e6f7420747261696e6564207965742100000000000000604482015290519081900360640190fd5b600254604080517faba60a700000000000000000000000000000000000000000000000000000000081526004810185905290513092600160a060020a03169163aba60a70916024808301926020929190829003018186803b158015610d8b57600080fd5b505afa158015610d9f573d6000803e3d6000fd5b505050506040513d6020811015610db557600080fd5b5051600160a060020a031614610e15576040805160e560020a62461bcd02815260206004820152601560248201527f696e76616c6964206368616e6e656c206f776e65720000000000000000000000604482015290519081900360640190fd5b60005b6000848152602081905260409020600801548110156113075760035460008581526020819052604081206008018054606093600160a060020a03169163d5f1f8df9186908110610e6457fe5b90600052602060002001546040518263ffffffff1660e060020a02815260040180828152602001915050600060405180830381600087803b158015610ea857600080fd5b505af1158015610ebc573d6000803e3d6000fd5b505050506040513d6000823e601f3d908101601f191682016040908152811015610ee557600080fd5b810190808051640100000000811115610efd57600080fd5b82016020810184811115610f1057600080fd5b8151856020820283011164010000000082111715610f2d57600080fd5b505060209091015190945092505050600019600082900b1415610f63576000868152602081905260409020805462ff0000191690555b8060000b60001415611108576004805460008881526020818152604080832085015460015482517fe503612f0000000000000000000000000000000000000000000000000000000081529687018d9052600160a060020a0391821660248801526044870152905193169363e503612f9360648083019491928390030190829087803b158015610ff157600080fd5b505af1158015611005573d6000803e3d6000fd5b505050506040513d602081101561101b57600080fd5b50600090505b82518110156111065760035460008881526020819052604090206008018054600160a060020a03909216916369534c9791908790811061105d57fe5b9060005260206000200154858481518110151561107657fe5b906020019060200201516040518363ffffffff1660e060020a0281526004018083815260200182600160a060020a0316600160a060020a0316815260200192505050602060405180830381600087803b1580156110d257600080fd5b505af11580156110e6573d6000803e3d6000fd5b505050506040513d60208110156110fc57600080fd5b5050600101611021565b505b600354600087815260208190526040902060080180543092600160a060020a0316916318930577918790811061113a57fe5b90600052602060002001546040518263ffffffff1660e060020a0281526004018082815260200191505060206040518083038186803b15801561117c57600080fd5b505afa158015611190573d6000803e3d6000fd5b505050506040513d60208110156111a657600080fd5b5051600160a060020a031614611206576040805160e560020a62461bcd02815260206004820152601760248201527f696e76616c6964206368616c6c656e6765206f776e6572000000000000000000604482015290519081900360640190fd5b60035460008781526020819052604090206008018054600160a060020a03909216916361b2806f91908690811061123957fe5b90600052602060002001546040518263ffffffff1660e060020a0281526004018082815260200191505060206040518083038186803b15801561127b57600080fd5b505afa15801561128f573d6000803e3d6000fd5b505050506040513d60208110156112a557600080fd5b505115156112fd576040805160e560020a62461bcd02815260206004820152601a60248201527f696e76616c69642070726f6f6620766572696669636174696f6e000000000000604482015290519081900360640190fd5b5050600101610e18565b5050506000908152602081905260409020805462ff0000191662010000179055565b600081815260208190526040812054829062010000900460ff161515611399576040805160e560020a62461bcd02815260206004820152601a60248201527f4d6f64656c206973206e6f742076657269666965642079657421000000000000604482015290519081900360640190fd5b6004805460008581526020818152604080832085015460015482517ff5b16b840000000000000000000000000000000000000000000000000000000081529687018a9052600160a060020a0391821660248801526044870152905193169363f5b16b849360648083019491928390030190829087803b15801561141b57600080fd5b505af115801561142f573d6000803e3d6000fd5b505050506040513d602081101561144557600080fd5b505060008381526020818152604091829020600401546001548351878152600160a060020a03909216928201929092528083019190915290517f047242d10cccade5394622c3c16a1890d635f6e458df652d3970fa29c72bf5c29181900360600190a150600192915050565b600081815260208190526040812054829060ff161515611509576040805160e560020a62461bcd0281526020600482015260156024820152600080516020611d1a833981519152604482015290519081900360640190fd5b5050600090815260208190526040902054610100900460ff1690565b600081815260208190526040812054829060ff16151561157d576040805160e560020a62461bcd0281526020600482015260156024820152600080516020611d1a833981519152604482015290519081900360640190fd5b505060009081526020819052604090206002015490565b600081815260208190526040812054829060ff1615156115ec576040805160e560020a62461bcd0281526020600482015260156024820152600080516020611d1a833981519152604482015290519081900360640190fd5b505060009081526020819052604090205462010000900460ff1690565b6000818152602081905260408120600401548290600160a060020a0316331461167c576040805160e560020a62461bcd02815260206004820152601360248201527f696e76616c6964206d6f64656c206f776e657200000000000000000000000000604482015290519081900360640190fd5b600254604080517fcd294a6d000000000000000000000000000000000000000000000000000000008152600481018690529051600160a060020a039092169163cd294a6d91602480820192602092909190829003018186803b1580156116e157600080fd5b505afa1580156116f5573d6000803e3d6000fd5b505050506040513d602081101561170b57600080fd5b50511515611763576040805160e560020a62461bcd02815260206004820152601260248201527f50726f6f66206973206e6f742076616c69640000000000000000000000000000604482015290519081900360640190fd5b600254604080517fab1f9512000000000000000000000000000000000000000000000000000000008152600481018690529051600160a060020a039092169163ab1f9512916024808201926020929091908290030181600087803b1580156117ca57600080fd5b505af11580156117de573d6000803e3d6000fd5b505050506040513d60208110156117f457600080fd5b505050600091825260208290526040909120805461ff00191661010017905590565b60008481526020818152604080832060050180548251601f6002600019610100600186161502019093169290920491820185900485028101850190935280835288936060939291908301828280156118af5780601f10611884576101008083540402835291602001916118af565b820191906000526020600020905b81548152906001019060200180831161189257829003601f168201915b505050505090508051600014151515611912576040805160e560020a62461bcd02815260206004820152601060248201527f6d6f64656c206e6f742065786973747300000000000000000000000000000000604482015290519081900360640190fd5b600082815260208190526040902054610100900460ff16151561197f576040805160e560020a62461bcd02815260206004820152601960248201527f4d6f64656c206973206e6f7420747261696e6564207965742100000000000000604482015290519081900360640190fd5b600254604080517faba60a700000000000000000000000000000000000000000000000000000000081526004810185905290513092600160a060020a03169163aba60a70916024808301926020929190829003018186803b1580156119e357600080fd5b505afa1580156119f7573d6000803e3d6000fd5b505050506040513d6020811015611a0d57600080fd5b5051600160a060020a031614611a6d576040805160e560020a62461bcd02815260206004820152601560248201527f696e76616c6964206368616e6e656c206f776e65720000000000000000000000604482015290519081900360640190fd5b6000878152602081905260409020600401548790600160a060020a03163314611ae0576040805160e560020a62461bcd02815260206004820152601360248201527f696e76616c6964206d6f64656c206f776e657200000000000000000000000000604482015290519081900360640190fd5b6000888152602081815260408083206002018a905560035481517fcfd94616000000000000000000000000000000000000000000000000000000008152600481018d9052602481018d9052604481018b9052606481018c9052608481018a90529151600160a060020a039091169363cfd946169360a480850194919392918390030190829087803b158015611b7457600080fd5b505af1158015611b88573d6000803e3d6000fd5b505050506040513d6020811015611b9e57600080fd5b50511515611bf6576040805160e560020a62461bcd02815260206004820152601e60248201527f756e61626c6520746f20696e697469616c697a65206368616c6c656e67650000604482015290519081900360640190fd5b604080518981526020810189905260018183015290517f01f982f81a226caa963d612ae3eb685f66ae0e38865771e7238bdbff2738be569181900360600190a1506001979650505050505050565b828054600181600116156101000203166002900490600052602060002090601f016020900481019282601f10611c8557805160ff1916838001178555611cb2565b82800160010185558215611cb2579182015b82811115611cb2578251825591602001919060010190611c97565b50611cbe929150611cfc565b5090565b828054828255906000526020600020908101928215611cb25791602002820182811115611cb2578251825591602001919060010190611c97565b611d1691905b80821115611cbe5760008155600101611d02565b9056fe4d6f64656c20646f6573206e6f74206578697374210000000000000000000000a165627a7a7230582093473739bf492f743c4ebfc5489309014a17ad18944c9d04ee7320000ba293b70029",
  "source": "pragma solidity ^0.5.0;\n\nimport './FitchainStake.sol';\nimport './GossipersPool.sol';\nimport './VerifiersPool.sol';\n\n/**\n@title Fitchain Model Contract\n@author Team: Fitchain Team\n*/\n\ncontract FitchainModel {\n\n    // fitchain model\n    struct Model {\n        bool exist;\n        bool isTrained;\n        bool isVerified;\n        uint256 kGossipers;\n        uint256 kVerifiers;\n        uint256 format;\n        address owner;\n        string location;\n        bytes32 paymentId;\n        bytes32 gossipersPoolId;\n        bytes32[] verifiersPoolIds;\n        string inputSignature;\n        string modelType;\n    }\n\n    mapping(bytes32 => Model) models;\n    uint256 private minStake;\n    GossipersPool private gossipersPool;\n    VerifiersPool private verifiersPool;\n    FitchainStake private stake;\n\n\n    //events\n    event ModelCreated(bytes32 modelId, address owner, bool state);\n    event StakeReleased(bytes32 modelId, address to, uint256 amount);\n    event ModelPublished(bytes32 modelId, string location, uint256 format, string modelType, string inputSignature);\n    event ModelVerificationStarted(bytes32 modelId, uint256 kVerifiers, bool state);\n\n    modifier notExist(bytes32 modelId){\n        require(!models[modelId].exist, 'Model already exist');\n        _;\n    }\n\n    modifier onlyExist(bytes32 modelId) {\n        require(models[modelId].exist,'Model does not exist!');\n        _;\n    }\n\n    modifier onlyModelOwner(bytes32 modelId){\n        require(models[modelId].owner == msg.sender, 'invalid model owner');\n        _;\n    }\n\n    modifier onlyValidatedModel(bytes32 modelId){\n        bytes memory tempLocationBytes = bytes(models[modelId].location);\n        require(tempLocationBytes.length != 0, 'model not exists');\n        require(models[modelId].isTrained, 'Model is not trained yet!');\n        require(gossipersPool.getChannelOwner(modelId) == address(this), 'invalid channel owner');\n        _;\n    }\n\n    modifier onlyVerifiedModel(bytes32 modelId){\n        require(models[modelId].isVerified, 'Model is not verified yet!');\n        _;\n    }\n\n    constructor(uint256 _minStake, address _gossiperContractAddress, address _verifierContractAddress, address _stakingAddress) public {\n        require(_gossiperContractAddress != address(0), 'invalid gossiper contract address');\n        require(_verifierContractAddress != address(0), 'invalid verifier contract address');\n        require(_stakingAddress != address(0), 'invalid staking contract address');\n        gossipersPool = GossipersPool(_gossiperContractAddress);\n        verifiersPool = VerifiersPool(_verifierContractAddress);\n        stake = FitchainStake(_stakingAddress);\n        minStake = _minStake;\n    }\n\n    function createModel(bytes32 modelId, bytes32 paymentRecieptId, uint256 m, uint256 n) public notExist(modelId) returns(bool) {\n        // needs to verify consumer signature when create new model\n        if(stake.stake(modelId, msg.sender, minStake)){\n            models[modelId] = Model(true, false, false, 0,n, 0, msg.sender, new string(0), paymentRecieptId, bytes32(0), new bytes32[](0), new string(0), new string(0));\n            // start goisspers channel\n            gossipersPool.initChannel(modelId, n, m, address(this));\n            emit ModelCreated(modelId, msg.sender, true);\n            return true;\n        }\n        emit ModelCreated(modelId, msg.sender, false);\n        return false;\n\n    }\n\n    function publishModel(bytes32 modelId, string memory _location, uint256 _format, string memory _modelType, string memory _inputSignature) public onlyModelOwner(modelId) returns(bool) {\n        models[modelId].location = _location;\n        models[modelId].format = _format;\n        models[modelId].modelType = _modelType;\n        models[modelId].inputSignature = _inputSignature;\n        emit ModelPublished(modelId, _location, _format, _modelType, _inputSignature);\n        return true;\n    }\n\n    function verifyModel(bytes32 modelId, uint256 kVerifiers, uint256 wallTime, bytes32 testingData) public onlyValidatedModel(modelId) onlyModelOwner(modelId) returns(bool){\n        models[modelId].kVerifiers = kVerifiers;\n        //init verification pool\n        require(verifiersPool.initChallenge(modelId, modelId, wallTime, kVerifiers, testingData), 'unable to initialize challenge');\n        emit ModelVerificationStarted(modelId, kVerifiers, true);\n        return true;\n    }\n\n    function releaseModelStake(bytes32 modelId) public onlyVerifiedModel(modelId) returns(bool) {\n        stake.release(modelId, models[modelId].owner, minStake);\n        emit StakeReleased(modelId, models[modelId].owner, minStake);\n        return true;\n    }\n\n    function isModelTrained(bytes32 modelId) public view onlyExist(modelId) returns(bool){\n        return models[modelId].isTrained;\n    }\n\n    function isModelVerified(bytes32 modelId) public view onlyExist(modelId) returns(bool){\n        return models[modelId].isVerified;\n    }\n\n    function getModelKVerifiersCount(bytes32 modelId) public view onlyExist(modelId) returns(uint256){\n        return models[modelId].kVerifiers;\n    }\n\n    function getModelKGossipersCount(bytes32 modelId) public view onlyExist(modelId) returns(uint256){\n        return models[modelId].kGossipers;\n    }\n\n    function getModelChallengeCount(bytes32 modelId) public view onlyExist(modelId) returns(uint256){\n        return models[modelId].verifiersPoolIds.length;\n    }\n\n    function setModelTrained(bytes32 modelId) public onlyModelOwner(modelId) returns(bool) {\n        require(gossipersPool.isValidProof(modelId), 'Proof is not valid');\n        gossipersPool.terminateChannel(modelId);\n        models[modelId].isTrained = true;\n    }\n\n    function setModelVerified(bytes32 modelId) public onlyValidatedModel(modelId) {\n        for (uint256 i=0; i < models[modelId].verifiersPoolIds.length; i++){\n            (address[] memory losers, int8 state) = verifiersPool.getCommitRevealResults(models[modelId].verifiersPoolIds[i]);\n            // need to slash or take actions based on the revealed commits\n            if(state == -1){\n                models[modelId].isVerified = false;\n                // emit event indicating commitment did NOT timedout!\n            }\n            if(state == 0){\n                // slash Data-compute provider\n                stake.slash(modelId, models[modelId].owner, minStake);\n                for(uint256 j=0; j < losers.length; j++){\n                    //slash verifiers (losers only)\n                    verifiersPool.slashVerifier(models[modelId].verifiersPoolIds[i], losers[j]);\n                    //TODO: redistribute slashed amount as a reward\n                }\n            }\n            require(verifiersPool.getChallengeOwner(models[modelId].verifiersPoolIds[i]) == address(this), 'invalid challenge owner');\n            require(verifiersPool.isVerifiedProof(models[modelId].verifiersPoolIds[i]), 'invalid proof verification');\n        }\n        models[modelId].isVerified = true;\n    }\n\n}\n",
  "sourcePath": "/Users/fancy/Documents/Ocean Protocol/research/16-research-repo/research/1-fitchain-analysis/fitchain-contracts/contracts/FitchainModel.sol",
  "compiler": {
    "name": "solc",
    "version": "0.5.0+commit.1d4f565a.Emscripten.clang"
  },
  "schemaVersion": "3.0.1",
  "updatedAt": "2019-01-24T02:15:21.583Z",
  "devdoc": {
    "author": "Team: Fitchain Team",
    "methods": {},
    "title": "Fitchain Model Contract"
  },
  "userdoc": {
    "methods": {}
  }
}