{
  "contractName": "FitchainRegistry",
  "abi": [
    {
      "constant": false,
      "inputs": [],
      "name": "renounceOwnership",
      "outputs": [],
      "payable": false,
      "stateMutability": "nonpayable",
      "type": "function"
    },
    {
      "constant": true,
      "inputs": [],
      "name": "owner",
      "outputs": [
        {
          "name": "",
          "type": "address"
        }
      ],
      "payable": false,
      "stateMutability": "view",
      "type": "function"
    },
    {
      "constant": true,
      "inputs": [],
      "name": "isOwner",
      "outputs": [
        {
          "name": "",
          "type": "bool"
        }
      ],
      "payable": false,
      "stateMutability": "view",
      "type": "function"
    },
    {
      "constant": false,
      "inputs": [
        {
          "name": "newOwner",
          "type": "address"
        }
      ],
      "name": "transferOwnership",
      "outputs": [],
      "payable": false,
      "stateMutability": "nonpayable",
      "type": "function"
    },
    {
      "inputs": [
        {
          "name": "_stakeAddress",
          "type": "address"
        }
      ],
      "payable": false,
      "stateMutability": "nonpayable",
      "type": "constructor"
    },
    {
      "anonymous": false,
      "inputs": [
        {
          "indexed": true,
          "name": "previousOwner",
          "type": "address"
        },
        {
          "indexed": true,
          "name": "newOwner",
          "type": "address"
        }
      ],
      "name": "OwnershipTransferred",
      "type": "event"
    },
    {
      "constant": false,
      "inputs": [
        {
          "name": "actor",
          "type": "address"
        },
        {
          "name": "slots",
          "type": "uint256"
        },
        {
          "name": "stakeId",
          "type": "bytes32"
        },
        {
          "name": "amount",
          "type": "uint256"
        }
      ],
      "name": "register",
      "outputs": [
        {
          "name": "",
          "type": "bool"
        }
      ],
      "payable": false,
      "stateMutability": "nonpayable",
      "type": "function"
    },
    {
      "constant": false,
      "inputs": [
        {
          "name": "actor",
          "type": "address"
        },
        {
          "name": "stakeId",
          "type": "bytes32"
        }
      ],
      "name": "deregister",
      "outputs": [
        {
          "name": "",
          "type": "bool"
        }
      ],
      "payable": false,
      "stateMutability": "nonpayable",
      "type": "function"
    },
    {
      "constant": false,
      "inputs": [
        {
          "name": "stakeId",
          "type": "bytes32"
        },
        {
          "name": "actor",
          "type": "address"
        },
        {
          "name": "amount",
          "type": "uint256"
        },
        {
          "name": "decrementSlots",
          "type": "bool"
        }
      ],
      "name": "slashActor",
      "outputs": [
        {
          "name": "",
          "type": "bool"
        }
      ],
      "payable": false,
      "stateMutability": "nonpayable",
      "type": "function"
    },
    {
      "constant": true,
      "inputs": [
        {
          "name": "actor",
          "type": "address"
        }
      ],
      "name": "isActorRegistered",
      "outputs": [
        {
          "name": "",
          "type": "bool"
        }
      ],
      "payable": false,
      "stateMutability": "view",
      "type": "function"
    },
    {
      "constant": true,
      "inputs": [
        {
          "name": "actor",
          "type": "address"
        }
      ],
      "name": "getActorFreeSlots",
      "outputs": [
        {
          "name": "",
          "type": "uint256"
        }
      ],
      "payable": false,
      "stateMutability": "view",
      "type": "function"
    },
    {
      "constant": true,
      "inputs": [
        {
          "name": "actor",
          "type": "address"
        }
      ],
      "name": "getActorMaxSlots",
      "outputs": [
        {
          "name": "",
          "type": "uint256"
        }
      ],
      "payable": false,
      "stateMutability": "view",
      "type": "function"
    },
    {
      "constant": true,
      "inputs": [],
      "name": "getAvaliableRegistrants",
      "outputs": [
        {
          "name": "",
          "type": "address[]"
        }
      ],
      "payable": false,
      "stateMutability": "view",
      "type": "function"
    },
    {
      "constant": false,
      "inputs": [
        {
          "name": "actor",
          "type": "address"
        }
      ],
      "name": "decrementActorSlots",
      "outputs": [
        {
          "name": "",
          "type": "bool"
        }
      ],
      "payable": false,
      "stateMutability": "nonpayable",
      "type": "function"
    },
    {
      "constant": false,
      "inputs": [
        {
          "name": "actor",
          "type": "address"
        }
      ],
      "name": "incrementActorSlots",
      "outputs": [
        {
          "name": "",
          "type": "bool"
        }
      ],
      "payable": false,
      "stateMutability": "nonpayable",
      "type": "function"
    }
  ],
  "bytecode": "0x608060405234801561001057600080fd5b506040516020806112b58339810180604052602081101561003057600080fd5b505160008054600160a060020a0319163317808255604051600160a060020a039190911691907f8be0079c531659141344cd1fd0a4f28419497f9722a3daafe3b4186f6b6457e0908290a3600160a060020a03811615156100f257604080517f08c379a000000000000000000000000000000000000000000000000000000000815260206004820152600f60248201527f696e76616c696420616464726573730000000000000000000000000000000000604482015290519081900360640190fd5b60038054600160a060020a031916600160a060020a0392909216919091179055611194806101216000396000f3fe6080604052600436106100c45763ffffffff7c0100000000000000000000000000000000000000000000000000000000600035041663149fe50981146100c957806329d8e19b146101105780632bc6aa4e14610175578063392bb9d5146101a85780635cfcdbc5146101ed57806362db8bc214610226578063715018a61461026d578063772279dd146102845780638da5cb5b146102b75780638f32d59b146102e8578063a7e7c09f146102fd578063f2fde38b14610342578063f8102a9814610375575b600080fd5b3480156100d557600080fd5b506100fc600480360360208110156100ec57600080fd5b5035600160a060020a03166103a8565b604080519115158252519081900360200190f35b34801561011c57600080fd5b506101256104e0565b60408051602080825283518183015283519192839290830191858101910280838360005b83811015610161578181015183820152602001610149565b505050509050019250505060405180910390f35b34801561018157600080fd5b506100fc6004803603602081101561019857600080fd5b5035600160a060020a031661054c565b3480156101b457600080fd5b506101db600480360360208110156101cb57600080fd5b5035600160a060020a0316610577565b60408051918252519081900360200190f35b3480156101f957600080fd5b506100fc6004803603604081101561021057600080fd5b50600160a060020a0381351690602001356105a2565b34801561023257600080fd5b506100fc6004803603608081101561024957600080fd5b50803590600160a060020a0360208201351690604081013590606001351515610892565b34801561027957600080fd5b50610282610ab0565b005b34801561029057600080fd5b506100fc600480360360208110156102a757600080fd5b5035600160a060020a0316610b1a565b3480156102c357600080fd5b506102cc610c6d565b60408051600160a060020a039092168252519081900360200190f35b3480156102f457600080fd5b506100fc610c7c565b34801561030957600080fd5b506100fc6004803603608081101561032057600080fd5b50600160a060020a038135169060208101359060408101359060600135610c8d565b34801561034e57600080fd5b506102826004803603602081101561036557600080fd5b5035600160a060020a0316610e76565b34801561038157600080fd5b506101db6004803603602081101561039857600080fd5b5035600160a060020a0316610e95565b336000908152600160209081526040808320600160a060020a0385168452909152812054829060ff161515610415576040805160e560020a62461bcd0281526020600482015260166024820152600080516020611149833981519152604482015290519081900360640190fd5b336000908152600160208181526040808420600160a060020a0388168552909152822001541161048f576040805160e560020a62461bcd02815260206004820152601360248201527f696e76616c696420736c6f74732076616c756500000000000000000000000000604482015290519081900360640190fd5b336000908152600160208181526040808420600160a060020a0388168552909152909120018054600019019081905515156104d5576104ce8333610ec0565b91506104da565b600191505b50919050565b3360009081526002602090815260409182902080548351818402810184019094528084526060939283018282801561054157602002820191906000526020600020905b8154600160a060020a03168152600190910190602001808311610523575b505050505090505b90565b336000908152600160209081526040808320600160a060020a03949094168352929052205460ff1690565b336000908152600160208181526040808420600160a060020a03861685529091529091200154919050565b336000908152600160209081526040808320600160a060020a0386168452909152812054839060ff16151561060f576040805160e560020a62461bcd0281526020600482015260166024820152600080516020611149833981519152604482015290519081900360640190fd5b336000908152600160208181526040808420600160a060020a038916855290915290912060028101549101548591146106b8576040805160e560020a62461bcd02815260206004820152602a60248201527f72656769737472616e7420697320627573792c20706c6561736520667265652060448201527f736f6d6520736c6f747300000000000000000000000000000000000000000000606482015290519081900360840190fd5b600354604080517f570bd55800000000000000000000000000000000000000000000000000000000815260048101879052600160a060020a0388811660248301529151600093929092169163570bd55891604480820192602092909190829003018186803b15801561072957600080fd5b505afa15801561073d573d6000803e3d6000fd5b505050506040513d602081101561075357600080fd5b50519050600081116107af576040805160e560020a62461bcd02815260206004820152601760248201527f696e6469636174696e6720656d707479207374616b6521000000000000000000604482015290519081900360640190fd5b336000818152600160209081526040808320600160a060020a038b1684529091529020805460ff191690556107e5908790610ec0565b50600354604080517ff5b16b8400000000000000000000000000000000000000000000000000000000815260048101889052600160a060020a038981166024830152604482018590529151919092169163f5b16b849160648083019260209291908290030181600087803b15801561085c57600080fd5b505af1158015610870573d6000803e3d6000fd5b505050506040513d602081101561088657600080fd5b50519695505050505050565b336000908152600160209081526040808320600160a060020a0387168452909152812054849060ff1615156108ff576040805160e560020a62461bcd0281526020600482015260166024820152600080516020611149833981519152604482015290519081900360640190fd5b336000908152600160209081526040808320600160a060020a0389168452909152902054859060ff16151561096c576040805160e560020a62461bcd0281526020600482015260166024820152600080516020611149833981519152604482015290519081900360640190fd5b600354604080517fe503612f000000000000000000000000000000000000000000000000000000008152600481018a9052600160a060020a038981166024830152604482018990529151919092169163e503612f9160648083019260209291908290030181600087803b1580156109e257600080fd5b505af11580156109f6573d6000803e3d6000fd5b505050506040513d6020811015610a0c57600080fd5b50511515610a64576040805160e560020a62461bcd02815260206004820152601960248201527f756e61626c6520746f20736c61736820746865206163746f7200000000000000604482015290519081900360640190fd5b8315610aa357610a73866103a8565b50336000908152600160209081526040808320600160a060020a038a168452909152902060020180546000190190555b5060019695505050505050565b610ab8610c7c565b1515610ac357600080fd5b60008054604051600160a060020a03909116907f8be0079c531659141344cd1fd0a4f28419497f9722a3daafe3b4186f6b6457e0908390a36000805473ffffffffffffffffffffffffffffffffffffffff19169055565b336000908152600160209081526040808320600160a060020a0385168452909152812054829060ff161515610b87576040805160e560020a62461bcd0281526020600482015260166024820152600080516020611149833981519152604482015290519081900360640190fd5b336000908152600160208181526040808420600160a060020a0388168552909152822001541015610c02576040805160e560020a62461bcd02815260206004820152601360248201527f696e76616c696420736c6f74732076616c756500000000000000000000000000604482015290519081900360640190fd5b336000908152600160208181526040808420600160a060020a038816855290915290912001541515610c3a57610c388333611032565b505b5050336000908152600160208181526040808420600160a060020a03959095168452939052919020810180548201905590565b600054600160a060020a031690565b600054600160a060020a0316331490565b336000908152600160209081526040808320600160a060020a0388168452909152812054859060ff1615610d0b576040805160e560020a62461bcd02815260206004820152601560248201527f4163746f7220616c726561647920657869737473210000000000000000000000604482015290519081900360640190fd5b6001851015610d64576040805160e560020a62461bcd02815260206004820152601c60248201527f696e76616c6964206e756d626572206f66206672656520736c6f747300000000604482015290519081900360640190fd5b600354604080517f8c610c8d00000000000000000000000000000000000000000000000000000000815260048101879052600160a060020a038981166024830152888702604483015291519190921691638c610c8d9160648083019260209291908290030181600087803b158015610ddb57600080fd5b505af1158015610def573d6000803e3d6000fd5b505050506040513d6020811015610e0557600080fd5b50511515610e1257600080fd5b60408051606081018252600180825260208083018981528385018a8152336000818152858552878120600160a060020a038f168252909452959092209351845460ff1916901515178455519183019190915551600290910155610aa3908790611032565b610e7e610c7c565b1515610e8957600080fd5b610e9281611084565b50565b336000908152600160209081526040808320600160a060020a03949094168352929052206002015490565b6000805b600160a060020a03831660009081526002602052604090205481101561102657600160a060020a0383166000908152600260205260409020805482908110610f0857fe5b600091825260209091200154600160a060020a038581169116141561101e57805b600160a060020a03841660009081526002602052604090205460001901811015610fe957600160a060020a0384166000908152600260205260409020805460018301908110610f7457fe5b6000918252602080832090910154600160a060020a03878116845260029092526040909220805491909216919083908110610fab57fe5b6000918252602090912001805473ffffffffffffffffffffffffffffffffffffffff1916600160a060020a0392909216919091179055600101610f29565b50600160a060020a0383166000908152600260205260409020805490611013906000198301611101565b50600191505061102c565b600101610ec4565b50600090505b92915050565b600160a060020a03908116600090815260026020908152604082208054600180820183559184529190922001805473ffffffffffffffffffffffffffffffffffffffff19169390921692909217905590565b600160a060020a038116151561109957600080fd5b60008054604051600160a060020a03808516939216917f8be0079c531659141344cd1fd0a4f28419497f9722a3daafe3b4186f6b6457e091a36000805473ffffffffffffffffffffffffffffffffffffffff1916600160a060020a0392909216919091179055565b8154818355818111156111255760008381526020902061112591810190830161112a565b505050565b61054991905b808211156111445760008155600101611130565b509056fe696e76616c6964207265676973747279206f776e657200000000000000000000a165627a7a7230582045ea5f6249607b1dd540e8530b0b3129472054d15606aff5f46a78f6d233cd2d0029",
  "source": "pragma solidity ^0.5.0;\n\nimport 'openzeppelin-solidity/contracts/ownership/Ownable.sol';\nimport './FitchainStake.sol';\n\n/**\n@title Fitchain Actors Registry\n@author Team: Fitchain Team\n*/\n\ncontract FitchainRegistry is Ownable {\n\n    struct Registrant {\n        bool exists;\n        uint256 slots;\n        uint256 maxSlots;\n    }\n    // RegistryOwner -> Actor -> RegistrantStruct\n    mapping(address => mapping(address => Registrant)) registry;\n    mapping(address => address[]) actors;\n    FitchainStake private staking;\n\n    modifier onlyRegistryOwner(address actor){\n        require(registry[msg.sender][actor].exists, 'invalid registry owner');\n        _;\n    }\n\n    modifier onlyExist(address actor){\n        require(registry[msg.sender][actor].exists, 'invalid registry owner');\n        _;\n    }\n\n    modifier onlyFreeSlots(address actor){\n        require(registry[msg.sender][actor].slots == registry[msg.sender][actor].maxSlots, 'registrant is busy, please free some slots');\n        _;\n    }\n\n    modifier onlyNotExist(address actor) {\n        require(!registry[msg.sender][actor].exists, 'Actor already exists!');\n        _;\n    }\n\n    constructor(address _stakeAddress) public {\n        require(_stakeAddress != address(0), 'invalid address');\n        staking = FitchainStake(_stakeAddress);\n    }\n\n    function register(address actor, uint256 slots, bytes32 stakeId, uint256 amount) public onlyNotExist(actor) returns(bool) {\n        require(slots >= 1, 'invalid number of free slots');\n        require(staking.stake(stakeId, actor, slots * amount));\n        registry[msg.sender][actor] = Registrant(true, slots, slots);\n        addActorToRegistry(actor, msg.sender);\n        return true;\n    }\n\n    function deregister(address actor, bytes32 stakeId) public onlyRegistryOwner(actor) onlyFreeSlots(actor) returns (bool) {\n        uint256 amount = staking.getStakebyActor(stakeId, actor);\n        require(amount > 0, 'indicating empty stake!');\n        registry[msg.sender][actor].exists = false;\n        removeActorFromRegistry(actor, msg.sender);\n        return staking.release(stakeId, actor, amount);\n    }\n\n    function slashActor(bytes32 stakeId, address actor, uint256 amount, bool decrementSlots) public onlyRegistryOwner(actor) onlyExist(actor) returns(bool){\n        require(staking.slash(stakeId, actor, amount), 'unable to slash the actor');\n        if(decrementSlots) {\n            decrementActorSlots(actor);\n            // decrement the max slots after slashing the stake\n            registry[msg.sender][actor].maxSlots -=1;\n        }\n        return true;\n    }\n\n    function isActorRegistered(address actor) public view returns(bool) {\n        return registry[msg.sender][actor].exists;\n    }\n\n    function getActorFreeSlots(address actor) public view returns(uint256) {\n        return registry[msg.sender][actor].slots;\n    }\n\n    function getActorMaxSlots(address actor) public view returns(uint256) {\n        return registry[msg.sender][actor].maxSlots;\n    }\n\n    function removeActorFromRegistry(address actor, address owner)  private returns(bool) {\n        // This function is prone to gas limit errors\n        for(uint256 j=0; j<actors[owner].length; j++){\n            if(actor == actors[owner][j]){\n                for (uint i=j; i< actors[owner].length-1; i++){\n                    actors[owner][i] = actors[owner][i+1];\n                }\n                actors[owner].length--;\n                return true;\n            }\n        }\n        return false;\n    }\n\n    function addActorToRegistry(address actor, address owner) private returns(bool) {\n        actors[owner].push(actor);\n        return true;\n    }\n\n    function getAvaliableRegistrants() public view returns(address[] memory) {\n        return actors[msg.sender];\n    }\n\n    function decrementActorSlots(address actor) public onlyRegistryOwner(actor) returns(bool){\n        require(registry[msg.sender][actor].slots > 0, 'invalid slots value');\n        registry[msg.sender][actor].slots -=1;\n        if(registry[msg.sender][actor].slots == 0){\n            return removeActorFromRegistry(actor, msg.sender);\n        }\n        return true;\n    }\n\n    function incrementActorSlots(address actor) public onlyRegistryOwner(actor) returns(bool){\n        require(registry[msg.sender][actor].slots >=0, 'invalid slots value');\n        if(registry[msg.sender][actor].slots == 0){\n            addActorToRegistry(actor, msg.sender);\n        }\n        registry[msg.sender][actor].slots +=1;\n        return true;\n    }\n}\n",
  "sourcePath": "/Users/fancy/Documents/Ocean Protocol/research/16-research-repo/research/1-fitchain-analysis/fitchain-contracts/contracts/FitchainRegistry.sol",
  "compiler": {
    "name": "solc",
    "version": "0.5.0+commit.1d4f565a.Emscripten.clang"
  },
  "schemaVersion": "3.0.1",
  "updatedAt": "2019-01-24T02:15:21.573Z",
  "devdoc": {
    "author": "Team: Fitchain Team",
    "methods": {
      "isOwner()": {
        "return": "true if `msg.sender` is the owner of the contract."
      },
      "owner()": {
        "return": "the address of the owner."
      },
      "renounceOwnership()": {
        "details": "Allows the current owner to relinquish control of the contract."
      },
      "transferOwnership(address)": {
        "details": "Allows the current owner to transfer control of the contract to a newOwner.",
        "params": {
          "newOwner": "The address to transfer ownership to."
        }
      }
    },
    "title": "Fitchain Actors Registry"
  },
  "userdoc": {
    "methods": {
      "renounceOwnership()": {
        "notice": "Renouncing to ownership will leave the contract without an owner. It will not be possible to call the functions with the `onlyOwner` modifier anymore."
      }
    }
  }
}