{
  "contractName": "FitchainPayment",
  "abi": [
    {
      "inputs": [
        {
          "name": "_modelContractAddress",
          "type": "address"
        },
        {
          "name": "_minTimeout",
          "type": "uint256"
        },
        {
          "name": "_tokenAddress",
          "type": "address"
        }
      ],
      "payable": false,
      "stateMutability": "nonpayable",
      "type": "constructor"
    },
    {
      "anonymous": false,
      "inputs": [
        {
          "indexed": false,
          "name": "Id",
          "type": "bytes32"
        },
        {
          "indexed": false,
          "name": "sender",
          "type": "address"
        },
        {
          "indexed": false,
          "name": "reciever",
          "type": "address"
        },
        {
          "indexed": false,
          "name": "amount",
          "type": "uint256"
        },
        {
          "indexed": false,
          "name": "asset",
          "type": "bytes32"
        }
      ],
      "name": "PaymentLocked",
      "type": "event"
    },
    {
      "anonymous": false,
      "inputs": [
        {
          "indexed": false,
          "name": "Id",
          "type": "bytes32"
        },
        {
          "indexed": false,
          "name": "reciever",
          "type": "address"
        },
        {
          "indexed": false,
          "name": "amount",
          "type": "uint256"
        }
      ],
      "name": "PaymentReleased",
      "type": "event"
    },
    {
      "anonymous": false,
      "inputs": [
        {
          "indexed": false,
          "name": "Id",
          "type": "bytes32"
        },
        {
          "indexed": false,
          "name": "reciever",
          "type": "address"
        },
        {
          "indexed": false,
          "name": "amount",
          "type": "uint256"
        }
      ],
      "name": "PaymentRefunded",
      "type": "event"
    },
    {
      "constant": false,
      "inputs": [
        {
          "name": "paymentId",
          "type": "bytes32"
        },
        {
          "name": "amount",
          "type": "uint256"
        },
        {
          "name": "reciever",
          "type": "address"
        },
        {
          "name": "asset",
          "type": "bytes32"
        },
        {
          "name": "timeout",
          "type": "uint256"
        }
      ],
      "name": "lockPayment",
      "outputs": [
        {
          "name": "",
          "type": "bool"
        }
      ],
      "payable": false,
      "stateMutability": "nonpayable",
      "type": "function"
    },
    {
      "constant": false,
      "inputs": [
        {
          "name": "paymentId",
          "type": "bytes32"
        }
      ],
      "name": "releasePayment",
      "outputs": [
        {
          "name": "",
          "type": "bool"
        }
      ],
      "payable": false,
      "stateMutability": "nonpayable",
      "type": "function"
    },
    {
      "constant": false,
      "inputs": [
        {
          "name": "paymentId",
          "type": "bytes32"
        }
      ],
      "name": "refundPayment",
      "outputs": [
        {
          "name": "",
          "type": "bool"
        }
      ],
      "payable": false,
      "stateMutability": "nonpayable",
      "type": "function"
    }
  ],
  "bytecode": "0x608060405234801561001057600080fd5b50604051606080610a1d8339810180604052606081101561003057600080fd5b5080516020820151604090920151909190600160a060020a03831615156100b857604080517f08c379a000000000000000000000000000000000000000000000000000000000815260206004820152601860248201527f696e76616c696420636f6e747261637420616464726573730000000000000000604482015290519081900360640190fd5b600160a060020a038116151561012f57604080517f08c379a000000000000000000000000000000000000000000000000000000000815260206004820152601560248201527f696e76616c696420746f6b656e20616464726573730000000000000000000000604482015290519081900360640190fd5b60008054600160a060020a03948516600160a060020a03199182161790915560018054929094169116179091556002556108af8061016e6000396000f3fe6080604052600436106100565763ffffffff7c01000000000000000000000000000000000000000000000000000000006000350416630fe4b80b811461005b5780637aa1ed58146100ba578063de8f8b3f146100e4575b600080fd5b34801561006757600080fd5b506100a6600480360360a081101561007e57600080fd5b50803590602081013590600160a060020a03604082013516906060810135906080013561010e565b604080519115158252519081900360200190f35b3480156100c657600080fd5b506100a6600480360360208110156100dd57600080fd5b503561045b565b3480156100f057600080fd5b506100a66004803603602081101561010757600080fd5b50356106fc565b60008581526003602052604081205460ff1615610175576040805160e560020a62461bcd02815260206004820152601660248201527f7061796d656e7420616c72656164792065786973747300000000000000000000604482015290519081900360640190fd5b600085116101cd576040805160e560020a62461bcd02815260206004820152601660248201527f696e76616c6964207061796d656e7420616d6f756e7400000000000000000000604482015290519081900360640190fd5b600254821015610227576040805160e560020a62461bcd02815260206004820152600760248201527f696e76616c696400000000000000000000000000000000000000000000000000604482015290519081900360640190fd5b60c06040519081016040528060011515815260200186815260200183815260200133600160a060020a0316815260200185600160a060020a03168152602001848152506003600088815260200190815260200160002060008201518160000160006101000a81548160ff021916908315150217905550602082015181600101556040820151816002015560608201518160030160006101000a815481600160a060020a030219169083600160a060020a0316021790555060808201518160040160006101000a815481600160a060020a030219169083600160a060020a0316021790555060a08201518160050155905050600160009054906101000a9004600160a060020a0316600160a060020a03166323b872dd3330886040518463ffffffff167c01000000000000000000000000000000000000000000000000000000000281526004018084600160a060020a0316600160a060020a0316815260200183600160a060020a0316600160a060020a031681526020018281526020019350505050602060405180830381600087803b1580156103c357600080fd5b505af11580156103d7573d6000803e3d6000fd5b505050506040513d60208110156103ed57600080fd5b505115156103fa57600080fd5b60408051878152336020820152600160a060020a03861681830152606081018790526080810185905290517f22d3bbce5b9332d84ba8b4fe5ad316d55e556f7ea78a60a16faf6492b87973e99181900360a00190a150600195945050505050565b60008054604080517f853565ac0000000000000000000000000000000000000000000000000000000081526004810185905290518492600160a060020a03169163853565ac916024808301926020929190829003018186803b1580156104c057600080fd5b505afa1580156104d4573d6000803e3d6000fd5b505050506040513d60208110156104ea57600080fd5b505180156105855750600054604080517fa35fd95e000000000000000000000000000000000000000000000000000000008152600481018490529051600160a060020a039092169163a35fd95e91602480820192602092909190829003018186803b15801561055857600080fd5b505afa15801561056c573d6000803e3d6000fd5b505050506040513d602081101561058257600080fd5b50515b15156105db576040805160e560020a62461bcd02815260206004820152601360248201527f696e76616c6964206d6f64656c20737461746500000000000000000000000000604482015290519081900360640190fd5b600180546000858152600360209081526040808320600480820154919096015482517fa9059cbb000000000000000000000000000000000000000000000000000000008152600160a060020a03928316978101979097526024870152905193169363a9059cbb9360448083019491928390030190829087803b15801561066057600080fd5b505af1158015610674573d6000803e3d6000fd5b505050506040513d602081101561068a57600080fd5b505060008381526003602090815260409182902060048101546001909101548351878152600160a060020a03909216928201929092528083019190915290517f1e170c3b430cc6fdcdaa453c42619ac587e13793aa81a489fab9ebd7019c2efb9181900360600190a150600192915050565b600081815260036020526040812060020154421115610765576040805160e560020a62461bcd02815260206004820152601060248201527f696e76616c69642074696d656f75742100000000000000000000000000000000604482015290519081900360640190fd5b60018054600084815260036020818152604080842092830154929095015485517fa9059cbb000000000000000000000000000000000000000000000000000000008152600160a060020a03938416600482015260248101919091529451919093169363a9059cbb936044808301949193928390030190829087803b1580156107ec57600080fd5b505af1158015610800573d6000803e3d6000fd5b505050506040513d602081101561081657600080fd5b5050600082815260036020818152604092839020918201546001909201548351868152600160a060020a03909316918301919091528183015290517f3b28817a65441bed1ac3a5496c6b71346aa302e80c7418c12e1c49eaa17211769181900360600190a150600191905056fea165627a7a723058203aff7d08b6fb057e14a5924e08fdd0c85329011f989aee7fb93f18eb496f3ad90029",
  "source": "pragma solidity ^0.5.0;\n\nimport './FitchainToken.sol';\nimport './FitchainModel.sol';\n\n/**\n@title Fitchain Payment Contract\n@author Team: Fitchain Team\n*/\n\ncontract FitchainPayment {\n\n    struct Payment{\n        bool exists;\n        uint256 amount;\n        uint256 timeout;\n        address sender;\n        address reciever;\n        bytes32 asset;\n    }\n\n    FitchainModel private model;\n    FitchainToken private token;\n\n    uint256 private MIN_TIMEOUT;\n    // ModelId == PaymentId --> payment\n    mapping(bytes32 => Payment) payments;\n\n    modifier onlyValidModel(bytes32 modelId){\n        require(model.isModelTrained(modelId) && model.isModelVerified(modelId), 'invalid model state');\n        _;\n    }\n\n    // events\n    event PaymentLocked(bytes32 Id, address sender, address reciever, uint256 amount, bytes32 asset);\n    event PaymentReleased(bytes32 Id, address reciever, uint256 amount);\n    event PaymentRefunded(bytes32 Id, address reciever, uint256 amount);\n\n    constructor(address _modelContractAddress, uint256 _minTimeout, address _tokenAddress) public{\n        require(_modelContractAddress != address(0), 'invalid contract address');\n        require(_tokenAddress != address(0), 'invalid token address');\n        model = FitchainModel(_modelContractAddress);\n        token = FitchainToken(_tokenAddress);\n        MIN_TIMEOUT = _minTimeout;\n    }\n\n    function lockPayment(bytes32 paymentId, uint256 amount, address reciever, bytes32 asset, uint256 timeout) public returns(bool){\n        require(!payments[paymentId].exists, 'payment already exists');\n        require(amount > 0, 'invalid payment amount');\n        require(timeout >= MIN_TIMEOUT, 'invalid');\n        payments[paymentId] = Payment(true, amount, timeout, msg.sender, reciever, asset);\n        require(token.transferFrom(msg.sender, address(this), amount));\n        emit PaymentLocked(paymentId, msg.sender, reciever, amount, asset);\n        return true;\n    }\n\n    function releasePayment(bytes32 paymentId) public onlyValidModel(paymentId) returns(bool){\n        token.transfer(payments[paymentId].reciever, payments[paymentId].amount);\n        emit PaymentReleased(paymentId,  payments[paymentId].reciever, payments[paymentId].amount);\n        return true;\n    }\n\n    function refundPayment(bytes32 paymentId) public returns(bool){\n        // not secure block timestamp\n        require(payments[paymentId].timeout >= block.timestamp, 'invalid timeout!');\n        token.transfer(payments[paymentId].sender, payments[paymentId].amount);\n        emit PaymentRefunded(paymentId, payments[paymentId].sender, payments[paymentId].amount);\n        return true;\n\n    }\n}\n",
  "sourcePath": "/Users/fancy/Documents/Ocean Protocol/research/16-research-repo/research/1-fitchain-analysis/fitchain-contracts/contracts/FitchainPayment.sol",
  "compiler": {
    "name": "solc",
    "version": "0.5.0+commit.1d4f565a.Emscripten.clang"
  },
  "schemaVersion": "3.0.1",
  "updatedAt": "2019-01-24T02:15:21.551Z",
  "devdoc": {
    "author": "Team: Fitchain Team",
    "methods": {},
    "title": "Fitchain Payment Contract"
  },
  "userdoc": {
    "methods": {}
  }
}