{
  "contractName": "FitchainHelper",
  "abi": [
    {
      "constant": true,
      "inputs": [
        {
          "name": "k",
          "type": "uint256"
        },
        {
          "name": "s",
          "type": "uint256"
        }
      ],
      "name": "suffle",
      "outputs": [
        {
          "name": "",
          "type": "uint256"
        }
      ],
      "payable": false,
      "stateMutability": "view",
      "type": "function"
    }
  ],
  "bytecode": "0x608060405234801561001057600080fd5b5060ff8061001f6000396000f3fe608060405260043610603e5763ffffffff7c01000000000000000000000000000000000000000000000000000000006000350416632156f2f081146043575b600080fd5b348015604e57600080fd5b50606f60048036036040811015606357600080fd5b50803590602001356081565b60408051918252519081900360200190f35b600081836001430360405160200180828152602001915050604051602081830303815290604052805190602001206001900481151560bb57fe5b0660010181151560c757fe5b0660010190509291505056fea165627a7a723058208e8e7f2e0278b16fce5ee5c1c84fd76d1db8545ba98ddff17c4e0be15c7a3b720029",
  "source": "pragma solidity ^0.5.0;\n\n/**\n@title Fitchain Supporting Functions\n@author team: Fitchain team\n*/\n\ncontract FitchainHelper {\n\n    function suffle(uint256 k, uint256 s) public view returns(uint256){\n        return (uint256(keccak256(abi.encodePacked(block.number-1)))%k + 1)%s + 1;\n    }\n}\n",
  "sourcePath": "/Users/fancy/Documents/Ocean Protocol/research/16-research-repo/research/1-fitchain-analysis/fitchain-contracts/contracts/FitchainHelper.sol",
  "compiler": {
    "name": "solc",
    "version": "0.5.0+commit.1d4f565a.Emscripten.clang"
  },
  "schemaVersion": "3.0.1",
  "updatedAt": "2019-01-24T02:15:21.545Z",
  "devdoc": {
    "author": "team: Fitchain team",
    "methods": {},
    "title": "Fitchain Supporting Functions"
  },
  "userdoc": {
    "methods": {}
  }
}