{
  "contractName": "GossipersPool",
  "abi": [
    {
      "inputs": [
        {
          "name": "_registryAddress",
          "type": "address"
        },
        {
          "name": "_minKGossipers",
          "type": "uint256"
        },
        {
          "name": "_maxKGossipers",
          "type": "uint256"
        },
        {
          "name": "_minStake",
          "type": "uint256"
        }
      ],
      "payable": false,
      "stateMutability": "nonpayable",
      "type": "constructor"
    },
    {
      "anonymous": false,
      "inputs": [
        {
          "indexed": false,
          "name": "channelId",
          "type": "bytes32"
        },
        {
          "indexed": false,
          "name": "gossipers",
          "type": "address[]"
        },
        {
          "indexed": false,
          "name": "proofId",
          "type": "bytes32"
        }
      ],
      "name": "ChannelInitialized",
      "type": "event"
    },
    {
      "anonymous": false,
      "inputs": [
        {
          "indexed": false,
          "name": "channelId",
          "type": "bytes32"
        },
        {
          "indexed": false,
          "name": "proofId",
          "type": "bytes32"
        },
        {
          "indexed": false,
          "name": "verifier",
          "type": "address"
        },
        {
          "indexed": false,
          "name": "proofHash",
          "type": "bytes32"
        }
      ],
      "name": "PoTSubmitted",
      "type": "event"
    },
    {
      "anonymous": false,
      "inputs": [
        {
          "indexed": false,
          "name": "channelId",
          "type": "bytes32"
        },
        {
          "indexed": false,
          "name": "proofId",
          "type": "bytes32"
        },
        {
          "indexed": false,
          "name": "state",
          "type": "bool"
        },
        {
          "indexed": false,
          "name": "submittedProofs",
          "type": "uint256"
        }
      ],
      "name": "PoTValidated",
      "type": "event"
    },
    {
      "constant": false,
      "inputs": [
        {
          "name": "amount",
          "type": "uint256"
        },
        {
          "name": "slots",
          "type": "uint256"
        }
      ],
      "name": "registerGossiper",
      "outputs": [
        {
          "name": "",
          "type": "bool"
        }
      ],
      "payable": false,
      "stateMutability": "nonpayable",
      "type": "function"
    },
    {
      "constant": true,
      "inputs": [
        {
          "name": "gossiper",
          "type": "address"
        }
      ],
      "name": "isRegisteredGossiper",
      "outputs": [
        {
          "name": "",
          "type": "bool"
        }
      ],
      "payable": false,
      "stateMutability": "view",
      "type": "function"
    },
    {
      "constant": false,
      "inputs": [],
      "name": "deregisterGossiper",
      "outputs": [
        {
          "name": "",
          "type": "bool"
        }
      ],
      "payable": false,
      "stateMutability": "nonpayable",
      "type": "function"
    },
    {
      "constant": true,
      "inputs": [],
      "name": "getAvailableGossipers",
      "outputs": [
        {
          "name": "",
          "type": "address[]"
        }
      ],
      "payable": false,
      "stateMutability": "view",
      "type": "function"
    },
    {
      "constant": false,
      "inputs": [
        {
          "name": "channelId",
          "type": "bytes32"
        },
        {
          "name": "KGossipers",
          "type": "uint256"
        },
        {
          "name": "mOfN",
          "type": "uint256"
        },
        {
          "name": "owner",
          "type": "address"
        }
      ],
      "name": "initChannel",
      "outputs": [
        {
          "name": "",
          "type": "bool"
        }
      ],
      "payable": false,
      "stateMutability": "nonpayable",
      "type": "function"
    },
    {
      "constant": false,
      "inputs": [
        {
          "name": "channelId",
          "type": "bytes32"
        }
      ],
      "name": "terminateChannel",
      "outputs": [
        {
          "name": "",
          "type": "bool"
        }
      ],
      "payable": false,
      "stateMutability": "nonpayable",
      "type": "function"
    },
    {
      "constant": true,
      "inputs": [
        {
          "name": "channelId",
          "type": "bytes32"
        }
      ],
      "name": "getChannelGossipers",
      "outputs": [
        {
          "name": "",
          "type": "address[]"
        }
      ],
      "payable": false,
      "stateMutability": "view",
      "type": "function"
    },
    {
      "constant": true,
      "inputs": [
        {
          "name": "proofId",
          "type": "bytes32"
        }
      ],
      "name": "getChannelByProofId",
      "outputs": [
        {
          "name": "",
          "type": "bytes32"
        }
      ],
      "payable": false,
      "stateMutability": "view",
      "type": "function"
    },
    {
      "constant": true,
      "inputs": [
        {
          "name": "channelId",
          "type": "bytes32"
        }
      ],
      "name": "getProofIdByChannelId",
      "outputs": [
        {
          "name": "",
          "type": "bytes32"
        }
      ],
      "payable": false,
      "stateMutability": "view",
      "type": "function"
    },
    {
      "constant": true,
      "inputs": [
        {
          "name": "channelId",
          "type": "bytes32"
        }
      ],
      "name": "getProof",
      "outputs": [
        {
          "name": "",
          "type": "bool"
        },
        {
          "name": "",
          "type": "bytes32"
        },
        {
          "name": "",
          "type": "bytes32[]"
        }
      ],
      "payable": false,
      "stateMutability": "view",
      "type": "function"
    },
    {
      "constant": true,
      "inputs": [
        {
          "name": "channelId",
          "type": "bytes32"
        }
      ],
      "name": "isValidProof",
      "outputs": [
        {
          "name": "",
          "type": "bool"
        }
      ],
      "payable": false,
      "stateMutability": "view",
      "type": "function"
    },
    {
      "constant": false,
      "inputs": [
        {
          "name": "channelId",
          "type": "bytes32"
        },
        {
          "name": "eot",
          "type": "string"
        },
        {
          "name": "merkleroot",
          "type": "bytes32[]"
        },
        {
          "name": "signature",
          "type": "bytes"
        },
        {
          "name": "result",
          "type": "bytes32"
        }
      ],
      "name": "submitProof",
      "outputs": [
        {
          "name": "",
          "type": "bool"
        }
      ],
      "payable": false,
      "stateMutability": "nonpayable",
      "type": "function"
    },
    {
      "constant": false,
      "inputs": [
        {
          "name": "channelId",
          "type": "bytes32"
        }
      ],
      "name": "validateProof",
      "outputs": [
        {
          "name": "",
          "type": "bool"
        }
      ],
      "payable": false,
      "stateMutability": "nonpayable",
      "type": "function"
    },
    {
      "constant": true,
      "inputs": [
        {
          "name": "channelId",
          "type": "bytes32"
        }
      ],
      "name": "getChannelOwner",
      "outputs": [
        {
          "name": "",
          "type": "address"
        }
      ],
      "payable": false,
      "stateMutability": "view",
      "type": "function"
    },
    {
      "constant": true,
      "inputs": [
        {
          "name": "channelId",
          "type": "bytes32"
        }
      ],
      "name": "isChannelTerminated",
      "outputs": [
        {
          "name": "",
          "type": "bool"
        }
      ],
      "payable": false,
      "stateMutability": "view",
      "type": "function"
    }
  ],
  "bytecode": "0x608060405234801561001057600080fd5b50604051608080611e308339810180604052608081101561003057600080fd5b5080516020820151604083015160609093015191929091600160a060020a03841615156100e457604080517f08c379a000000000000000000000000000000000000000000000000000000000815260206004820152602160248201527f696e76616c696420726567697374727920636f6e74726163742061646472657360448201527f7300000000000000000000000000000000000000000000000000000000000000606482015290519081900360840190fd5b6040805160608101825293845260208085019384528482019283523060009081526002918290529190912093518455915160018401555191015560038054600160a060020a0392909216600160a060020a0319909216919091179055611ce18061014f6000396000f3fe6080604052600436106100c05763ffffffff60e060020a600035041662ad775881146100c55780631b80bb3a1461010957806330dee48a14610199578063510faf3f146101ae5780635c4f56d6146101f357806366b4d5c21461022f57806367ee157b1461026257806380ffa69d146102dc5780639b501646146103065780639d79573d14610330578063ab1f9512146104f7578063aba60a7014610521578063be0bd65914610567578063cd294a6d1461057c578063eada966a146105a6575b600080fd5b3480156100d157600080fd5b506100f5600480360360408110156100e857600080fd5b50803590602001356105d0565b604080519115158252519081900360200190f35b34801561011557600080fd5b506101336004803603602081101561012c57600080fd5b50356106cf565b604051808415151515815260200183815260200180602001828103825283818151815260200191508051906020019060200280838360005b8381101561018357818101518382015260200161016b565b5050505090500194505050505060405180910390f35b3480156101a557600080fd5b506100f561075d565b3480156101ba57600080fd5b506100f5600480360360808110156101d157600080fd5b5080359060208101359060408101359060600135600160a060020a0316610829565b3480156101ff57600080fd5b5061021d6004803603602081101561021657600080fd5b5035610e75565b60408051918252519081900360200190f35b34801561023b57600080fd5b506100f56004803603602081101561025257600080fd5b5035600160a060020a0316610e8d565b34801561026e57600080fd5b5061028c6004803603602081101561028557600080fd5b5035610f87565b60408051602080825283518183015283519192839290830191858101910280838360005b838110156102c85781810151838201526020016102b0565b505050509050019250505060405180910390f35b3480156102e857600080fd5b506100f5600480360360208110156102ff57600080fd5b5035610ff4565b34801561031257600080fd5b506100f56004803603602081101561032957600080fd5b50356112bf565b34801561033c57600080fd5b506100f5600480360360a081101561035357600080fd5b8135919081019060408101602082013564010000000081111561037557600080fd5b82018360208201111561038757600080fd5b803590602001918460018302840111640100000000831117156103a957600080fd5b91908080601f01602080910402602001604051908101604052809392919081815260200183838082843760009201919091525092959493602081019350359150506401000000008111156103fc57600080fd5b82018360208201111561040e57600080fd5b8035906020019184602083028401116401000000008311171561043057600080fd5b919080806020026020016040519081016040528093929190818152602001838360200280828437600092019190915250929594936020810193503591505064010000000081111561048057600080fd5b82018360208201111561049257600080fd5b803590602001918460018302840111640100000000831117156104b457600080fd5b91908080601f01602080910402602001604051908101604052809392919081815260200183838082843760009201919091525092955050913592506112e6915050565b34801561050357600080fd5b506100f56004803603602081101561051a57600080fd5b5035611584565b34801561052d57600080fd5b5061054b6004803603602081101561054457600080fd5b5035611664565b60408051600160a060020a039092168252519081900360200190f35b34801561057357600080fd5b5061028c611684565b34801561058857600080fd5b506100f56004803603602081101561059f57600080fd5b5035611772565b3480156105b257600080fd5b5061021d600480360360208110156105c957600080fd5b5035611795565b3060009081526002602081905260408220015483908110156105f157600080fd5b600354604080516c01000000000000000000000000300260208083019190915282518083036014018152603483018085528151918301919091207fa7e7c09f00000000000000000000000000000000000000000000000000000000909152336038840152605883018890526078830152609882018890529151600160a060020a039093169263a7e7c09f9260b8808401939192918290030181600087803b15801561069b57600080fd5b505af11580156106af573d6000803e3d6000fd5b505050506040513d60208110156106c557600080fd5b5051949350505050565b6000818152602081815260408083206001908101548085529083528184208054600282015460049092018054855181880281018801909652808652879660609660ff909416949391839183018282801561074857602002820191906000526020600020905b815481526020019060010190808311610734575b50505050509050935093509350509193909250565b600354604080516c01000000000000000000000000300260208083019190915282518083036014018152603483018085528151918301919091207f5cfcdbc50000000000000000000000000000000000000000000000000000000090915233603884015260588301529151600093600160a060020a031692635cfcdbc5926078808201939182900301818787803b1580156107f757600080fd5b505af115801561080b573d6000803e3d6000fd5b505050506040513d602081101561082157600080fd5b505190505b90565b30600090815260026020526040812054849084908210156108b9576040805160e560020a62461bcd028152602060048201526024808201527f696e6469636174696e6720736d616c6c206e756d626572206f6620676f73736960448201527f7065727300000000000000000000000000000000000000000000000000000000606482015290519081900360840190fd5b30600090815260026020526040902060010154821115610948576040805160e560020a62461bcd028152602060048201526024808201527f696e6469636174696e67206c61726765206e756d626572206f6620676f73736960448201527f7065727300000000000000000000000000000000000000000000000000000000606482015290519081900360840190fd5b81610951611684565b5110156109a8576040805160e560020a62461bcd02815260206004820152601d60248201527f4b20676f7373697065727320617265206e6f7420617661696c61626c65000000604482015290519081900360640190fd5b80821015610a26576040805160e560020a62461bcd02815260206004820152602f60248201527f496e76616c6964206368616e6e656c20696e697469616c697a6174696f6e206960448201527f6e70757420706172616d65746572730000000000000000000000000000000000606482015290519081900360840190fd5b600087815260208190526040902054879060ff1615610a8f576040805160e560020a62461bcd02815260206004820152601660248201527f4368616e6e656c20616c72656164792065786973747300000000000000000000604482015290519081900360640190fd5b6040805160208082018b905243828401526c01000000000000000000000000330260608301528251605481840301815260748301808552815191830191909120610134840185526000808352609485018c905260b485018e90528551818152808501875260d48601528551818152808501875260f48601528551818152938401909552939092610114019190610b35565b6060815260200190600190039081610b205790505b5090526000828152600160208181526040928390208451815460ff19169015151781558482015192810192909255918301516002820155606083015180519192610b8792600385019290910190611a81565b5060808201518051610ba3916004840191602090910190611a81565b5060a08201518051610bbf916005840191602090910190611acc565b5090505060806040519081016040528060011515815260200187600160a060020a031681526020018281526020016000604051908082528060200260200182016040528015610c18578160200160208202803883390190505b50905260008a815260208181526040918290208351815485840151600160a060020a03166101000274ffffffffffffffffffffffffffffffffffffffff001992151560ff19909216919091179190911617815591830151600183015560608301518051610c8b9260028501920190611b25565b5090505087610c9a8a8a6117aa565b14610cef576040805160e560020a62461bcd02815260206004820152601c60248201527f556e61626c6520746f20696e697469616c697a65206368616e6e656c00000000604482015290519081900360640190fd5b60005b60008a815260208190526040902060020154811015610dc25760035460008b81526020819052604090206002018054600160a060020a039092169163149fe509919084908110610d3e57fe5b60009182526020808320909101546040805160e060020a63ffffffff8716028152600160a060020a0390921660048301525160248083019491928390030190829087803b158015610d8e57600080fd5b505af1158015610da2573d6000803e3d6000fd5b505050506040513d6020811015610db857600080fd5b5050600101610cf2565b507f36c173d71e50ea0e4b1999ea6792fd7db8317f4553e0b077d956c0042a1f3e9e896000808c81526020019081526020016000206002018360405180848152602001806020018381526020018281038252848181548152602001915080548015610e5657602002820191906000526020600020905b8154600160a060020a03168152600190910190602001808311610e38575b505094505050505060405180910390a150600198975050505050505050565b6000818152602081905260409020600101545b919050565b6000600160a060020a0382161515610eef576040805160e560020a62461bcd02815260206004820152601860248201527f696e76616c696420676f73736970657220616464726573730000000000000000604482015290519081900360640190fd5b600354604080517f2bc6aa4e000000000000000000000000000000000000000000000000000000008152600160a060020a03858116600483015291519190921691632bc6aa4e916024808301926020929190829003018186803b158015610f5557600080fd5b505afa158015610f69573d6000803e3d6000fd5b505050506040513d6020811015610f7f57600080fd5b505192915050565b60008181526020818152604091829020600201805483518184028101840190945280845260609392830182828015610fe857602002820191906000526020600020905b8154600160a060020a03168152600190910190602001808311610fca575b50505050509050919050565b600080805b6000848152602081815260408083206001908101548452909152902060050154811015611151576000848152602081815260408083206001908101548452909152902060050154600019018110156110cd5760008481526020818152604080832060019081015484529182905290912060040180549091830190811061107b57fe5b60009182526020808320909101548683528282526040808420600190810154855290925291206004018054839081106110b057fe5b906000526020600020015414156110c8576001820191505b611149565b60008481526020818152604080832060019081015484529091529020600401805460001983019081106110fc57fe5b600091825260208083209091015486835282825260408084206001908101548552909252912060040180548390811061113157fe5b90600052602060002001541415611149576001820191505b600101610ff9565b506000838152602081815260408083206001908101548452918290529091200154811061126057600083815260208181526040808320600190810154845291829052909120805460ff191690911790556111aa83611854565b1515611200576040805160e560020a62461bcd02815260206004820152601660248201527f756e61626c6520746f2066726565206368616e6e656c00000000000000000000604482015290519081900360640190fd5b60008381526020818152604091829020600190810154835187815292830152818301526060810183905290517f8a7a0f598bf2f32299dd79a8ac34cf83be246961287f45b46addff4dff3c791d9181900360800190a16001915050610e88565b60008381526020818152604080832060010154815187815292830152818101929092526060810183905290517f8a7a0f598bf2f32299dd79a8ac34cf83be246961287f45b46addff4dff3c791d9181900360800190a150600092915050565b60008181526020819052604081205460ff16156112de57506000610e88565b506001919050565b60008581805b60008381526020819052604090206002015481101561134b57600083815260208190526040902060020180548290811061132257fe5b600091825260209091200154600160a060020a031633141561134357600191505b6001016112ec565b508015156113c9576040805160e560020a62461bcd02815260206004820152602a60248201527f756e61626c6520746f20766572696679207468652070726f6f662c206163636560448201527f73732064656e6965642100000000000000000000000000000000000000000000606482015290519081900360840190fd5b600061147b89888a8860405160200180858152602001848051906020019060200280838360005b838110156114085781810151838201526020016113f0565b5050505090500183805190602001908083835b6020831061143a5780518252601f19909201916020918201910161141b565b51815160209384036101000a600019018019909216911617905292019384525060408051808503815293820190528251920191909120935061193192505050565b9050611488818733611982565b1561157357600089815260208181526040808320600190810154845280835290832060050180549182018082559084529282902089516114d0939190920191908a0190611b93565b50506000898152602081815260408083206001908101805485528184528285206004018054808401825590865284862001869055805485528285206003018054928301815585528385209091018990558c8452928252915482518c81529182015233818301526060810183905290517fffc4fa195561c386370c6b19cfeeee0782fc3dd14043d76ca1c746f922ff25cd9181900360800190a16001935050611579565b60009350505b505095945050505050565b6000818152602081815260408083206001908101548452909152812054829060ff161515611622576040805160e560020a62461bcd02815260206004820152603360248201527f556e61626c6520746f207465726d696e617465206368616e6e656c2c20506f5460448201527f206e6f742076616c696461746564207965742100000000000000000000000000606482015290519081900360840190fd5b60008381526020819052604090205460ff161515611643576001915061165e565b6000838152602081905260409020805460ff19169055600191505b50919050565b6000908152602081905260409020546101009004600160a060020a031690565b600354604080517f29d8e19b0000000000000000000000000000000000000000000000000000000081529051606092600160a060020a0316916329d8e19b916004808301926000929190829003018186803b1580156116e257600080fd5b505afa1580156116f6573d6000803e3d6000fd5b505050506040513d6000823e601f3d908101601f19168201604052602081101561171f57600080fd5b81019080805164010000000081111561173757600080fd5b8201602081018481111561174a57600080fd5b815185602082028301116401000000008211171561176757600080fd5b509094505050505090565b600090815260208181526040808320600190810154845290915290205460ff1690565b60009081526001602052604090206002015490565b600060606117b6611684565b905060005b838110156118385760008086815260200190815260200160002060020182828151811015156117e657fe5b602090810291909101810151825460018082018555600094855292909320909201805473ffffffffffffffffffffffffffffffffffffffff1916600160a060020a0390931692909217909155016117bb565b5050506000828152602081905260409020600201545b92915050565b6000805b6000838152602081905260409020600201548110156119285760035460008481526020819052604090206002018054600160a060020a039092169163772279dd9190849081106118a457fe5b60009182526020808320909101546040805160e060020a63ffffffff8716028152600160a060020a0390921660048301525160248083019491928390030190829087803b1580156118f457600080fd5b505af1158015611908573d6000803e3d6000fd5b505050506040513d602081101561191e57600080fd5b5050600101611858565b50600192915050565b604080517f19457468657265756d205369676e6564204d6573736167653a0a333200000000602080830191909152603c8083019490945282518083039094018452605c909101909152815191012090565b600061198e84846119ab565b600160a060020a031682600160a060020a03161490509392505050565b600080600080845160411415156119c8576000935050505061184e565b50505060208201516040830151606084015160001a601b60ff821610156119ed57601b015b8060ff16601b14158015611a0557508060ff16601c14155b15611a16576000935050505061184e565b6040805160008152602080820180845289905260ff8416828401526060820186905260808201859052915160019260a0808401939192601f1981019281900390910190855afa158015611a6d573d6000803e3d6000fd5b50505060206040510351935050505061184e565b828054828255906000526020600020908101928215611abc579160200282015b82811115611abc578251825591602001919060010190611aa1565b50611ac8929150611c00565b5090565b828054828255906000526020600020908101928215611b19579160200282015b82811115611b195782518051611b09918491602090910190611b93565b5091602001919060010190611aec565b50611ac8929150611c1a565b828054828255906000526020600020908101928215611b87579160200282015b82811115611b87578251825473ffffffffffffffffffffffffffffffffffffffff1916600160a060020a03909116178255602090920191600190910190611b45565b50611ac8929150611c3d565b828054600181600116156101000203166002900490600052602060002090601f016020900481019282601f10611bd457805160ff1916838001178555611abc565b82800160010185558215611abc5791820182811115611abc578251825591602001919060010190611aa1565b61082691905b80821115611ac85760008155600101611c06565b61082691905b80821115611ac8576000611c348282611c6e565b50600101611c20565b61082691905b80821115611ac857805473ffffffffffffffffffffffffffffffffffffffff19168155600101611c43565b50805460018160011615610100020316600290046000825580601f10611c945750611cb2565b601f016020900490600052602060002090810190611cb29190611c00565b5056fea165627a7a723058205c66bd886ce54e10a86387ca691fdbf82829f0d6e423236684e89e24955df7110029",
  "source": "pragma solidity ^0.5.0;\n\nimport 'openzeppelin-solidity/contracts/cryptography/ECDSA.sol';\nimport './FitchainRegistry.sol';\n\n/**\n@title Fitchain Gossipers Pool Contract\n@author Team: Fitchain Team\n*/\n\ncontract GossipersPool {\n\n    // lighting channels\n    struct Channel {\n        bool state;\n        address owner;\n        bytes32 proof;\n        address[] gossipers;\n    }\n\n    // proof of training\n    struct Proof {\n        bool isVerified;\n        uint256 MofNSigs;\n        bytes32 channelId;\n        bytes32[] results;\n        bytes32[] proofHashs;\n        bytes[] signatures;\n    }\n\n    // contract settings (only VPC contract owner)\n    struct GPCsettings {\n        uint256  minKGossipers;\n        uint256  maxKGossipers;\n        uint256  minStake;\n    }\n\n    mapping(bytes32 => Channel) channels;\n    mapping(bytes32 => Proof) proofs;\n    mapping(address => GPCsettings) settings;\n    FitchainRegistry private registry;\n\n\n\n    // events\n    event ChannelInitialized(bytes32 channelId, address[] gossipers, bytes32 proofId);\n    event PoTSubmitted(bytes32 channelId, bytes32 proofId, address verifier, bytes32 proofHash);\n    event PoTValidated(bytes32 channelId, bytes32 proofId, bool state, uint256 submittedProofs);\n\n    // access control modifiers\n    modifier requireKGossipers(uint256 KGossipers, uint256 mOfN) {\n        require(settings[address(this)].minKGossipers <= KGossipers, 'indicating small number of gossipers');\n        require(settings[address(this)].maxKGossipers >= KGossipers, 'indicating large number of gossipers');\n        require(getAvailableGossipers().length >= KGossipers, 'K gossipers are not available');\n        require(KGossipers >= mOfN, 'Invalid channel initialization input parameters');\n        _;\n    }\n\n    modifier isValidChannelId(bytes32 channelId) {\n        require(!channels[channelId].state, 'Channel already exists');\n        _;\n    }\n\n    modifier onlyValidStake(uint256 amount){\n        require(amount >= settings[address(this)].minStake);\n        _;\n    }\n\n    modifier canVerify(bytes32 channelId) {\n        bool state = false;\n        for(uint256 i=0; i< channels[channelId].gossipers.length; i++){\n            if(msg.sender == channels[channelId].gossipers[i]) state=true;\n        }\n        require(state, 'unable to verify the proof, access denied!');\n        _;\n    }\n\n    modifier isPotValidated(bytes32 channelId) {\n        require(proofs[channels[channelId].proof].isVerified, 'Unable to terminate channel, PoT not validated yet!');\n        _;\n    }\n\n    // init GPC settings\n    constructor(address _registryAddress, uint256 _minKGossipers, uint256 _maxKGossipers, uint256 _minStake) public {\n        require(_registryAddress != address(0), 'invalid registry contract address');\n        settings[address(this)] = GPCsettings(_minKGossipers, _maxKGossipers, _minStake);\n        registry = FitchainRegistry(_registryAddress);\n    }\n\n    function registerGossiper(uint256 amount, uint256 slots) public onlyValidStake(amount) returns(bool){\n        return registry.register(msg.sender, slots, keccak256(abi.encodePacked(address(this))), amount);\n    }\n\n    function isRegisteredGossiper(address gossiper) public view returns(bool){\n        require(gossiper != address(0), 'invalid gossiper address');\n        return registry.isActorRegistered(gossiper);\n    }\n\n    function deregisterGossiper() public returns(bool){\n        return registry.deregister(msg.sender,  keccak256(abi.encodePacked(address(this))));\n    }\n\n    function getAvailableGossipers() public view returns(address[] memory){\n        return registry.getAvaliableRegistrants();\n    }\n\n    function getKGossipers(bytes32 channelId, uint256 K) private returns(uint256){\n        address[] memory gossipersSet = getAvailableGossipers();\n        for(uint256 i=0; i< K; i++){\n            channels[channelId].gossipers.push(gossipersSet[i]);\n        }\n        return channels[channelId].gossipers.length;\n    }\n\n\n    function initChannel(bytes32 channelId, uint256 KGossipers, uint256 mOfN, address owner) public requireKGossipers(KGossipers, mOfN) isValidChannelId(channelId) returns(bool) {\n        bytes32 proofId = keccak256(abi.encodePacked(channelId, block.number, msg.sender));\n        proofs[proofId] = Proof(false, mOfN, channelId, new bytes32[](0), new bytes32[](0), new bytes[](0));\n        channels[channelId] = Channel(true, owner, proofId,new address[](0));\n        require(getKGossipers(channelId, KGossipers) == KGossipers , 'Unable to initialize channel');\n        for (uint256 i=0; i<channels[channelId].gossipers.length; i++){\n            registry.decrementActorSlots(channels[channelId].gossipers[i]);\n        }\n        emit ChannelInitialized(channelId, channels[channelId].gossipers, proofId);\n        return true;\n    }\n\n    function terminateChannel(bytes32 channelId) public isPotValidated(channelId) returns(bool) {\n        if(!channels[channelId].state) return true;\n        channels[channelId].state = false;\n        return true;\n    }\n\n    function getChannelGossipers(bytes32 channelId) public view returns(address[] memory) {\n        return channels[channelId].gossipers;\n    }\n\n    function getChannelByProofId(bytes32 proofId) public view returns(bytes32) {\n        return proofs[proofId].channelId;\n    }\n\n    function getProofIdByChannelId(bytes32 channelId) public view returns(bytes32) {\n        return channels[channelId].proof;\n    }\n\n    function getProof(bytes32 channelId) public view returns(bool, bytes32, bytes32[] memory) {\n        bytes32 proofId = channels[channelId].proof;\n        return (proofs[proofId].isVerified, proofs[proofId].channelId, proofs[proofId].proofHashs);\n    }\n\n    function isValidProof(bytes32 channelId) public view returns(bool) {\n        return proofs[channels[channelId].proof].isVerified;\n    }\n\n    function isValidSignature(bytes32 hash, bytes memory signature, address gossiper) private pure returns (bool){\n        return (gossiper == ECDSA.recover(hash, signature));\n    }\n\n    function submitProof(bytes32 channelId, string memory eot, bytes32[] memory merkleroot, bytes memory signature, bytes32 result) public canVerify(channelId) returns(bool) {\n        bytes32 prefixedHash = ECDSA.toEthSignedMessageHash(keccak256(abi.encodePacked(channelId, merkleroot, eot, result)));\n        if(isValidSignature(prefixedHash, signature, msg.sender)){\n            proofs[channels[channelId].proof].signatures.push(signature);\n            proofs[channels[channelId].proof].proofHashs.push(prefixedHash);\n            proofs[channels[channelId].proof].results.push(result);\n            emit PoTSubmitted(channelId, channels[channelId].proof, msg.sender, prefixedHash);\n            return true;\n        }\n        return false;\n    }\n\n    function freeChannelSlots(bytes32 channelId) private returns(bool){\n        for (uint j=0; j < channels[channelId].gossipers.length; j++){\n            registry.incrementActorSlots(channels[channelId].gossipers[j]);\n            //TODO: free the gossiper stake\n        }\n        return true;\n    }\n    function validateProof(bytes32 channelId) public returns (bool){\n        uint256 kValidProofs = 0;\n        for(uint256 i=0; i<proofs[channels[channelId].proof].signatures.length; i++){\n            if(i < proofs[channels[channelId].proof].signatures.length -1){\n                if(proofs[channels[channelId].proof].proofHashs[i] == proofs[channels[channelId].proof].proofHashs[i+1]) {\n                    kValidProofs +=1;\n                }\n            }else{\n                if(proofs[channels[channelId].proof].proofHashs[i] == proofs[channels[channelId].proof].proofHashs[i-1]){\n                    kValidProofs +=1;\n                }\n            }\n        }\n        if(proofs[channels[channelId].proof].MofNSigs <= kValidProofs) {\n            proofs[channels[channelId].proof].isVerified = true;\n            // free gossipers\n            require(freeChannelSlots(channelId), 'unable to free channel');\n            emit PoTValidated(channelId, channels[channelId].proof, true, kValidProofs);\n            return true;\n        }\n        emit PoTValidated(channelId, channels[channelId].proof, false, kValidProofs);\n        return false;\n    }\n\n    function getChannelOwner(bytes32 channelId) public view returns(address) {\n        return channels[channelId].owner;\n    }\n\n    function isChannelTerminated(bytes32 channelId) public view returns (bool) {\n        if (channels[channelId].state) return false;\n        return true;\n    }\n}\n",
  "sourcePath": "/Users/fancy/Documents/Ocean Protocol/research/16-research-repo/research/1-fitchain-analysis/fitchain-contracts/contracts/GossipersPool.sol",
  "compiler": {
    "name": "solc",
    "version": "0.5.0+commit.1d4f565a.Emscripten.clang"
  },
  "schemaVersion": "3.0.1",
  "updatedAt": "2019-01-24T02:15:21.619Z",
  "devdoc": {
    "author": "Team: Fitchain Team",
    "methods": {},
    "title": "Fitchain Gossipers Pool Contract"
  },
  "userdoc": {
    "methods": {}
  }
}