{
  "contractName": "VerifiersPool",
  "abi": [
    {
      "inputs": [
        {
          "name": "_minKVerifiers",
          "type": "uint256"
        },
        {
          "name": "_minStake",
          "type": "uint256"
        },
        {
          "name": "_commitTimeout",
          "type": "uint256"
        },
        {
          "name": "_revealTimeout",
          "type": "uint256"
        },
        {
          "name": "_commitReveal",
          "type": "address"
        },
        {
          "name": "_registry",
          "type": "address"
        }
      ],
      "payable": false,
      "stateMutability": "nonpayable",
      "type": "constructor"
    },
    {
      "anonymous": false,
      "inputs": [
        {
          "indexed": false,
          "name": "challengeId",
          "type": "bytes32"
        },
        {
          "indexed": false,
          "name": "verifiers",
          "type": "address[]"
        },
        {
          "indexed": false,
          "name": "proofId",
          "type": "bytes32"
        },
        {
          "indexed": false,
          "name": "testingData",
          "type": "bytes32"
        },
        {
          "indexed": false,
          "name": "state",
          "type": "bool"
        }
      ],
      "name": "ChallengeInitialized",
      "type": "event"
    },
    {
      "anonymous": false,
      "inputs": [
        {
          "indexed": false,
          "name": "challengeId",
          "type": "bytes32"
        },
        {
          "indexed": false,
          "name": "verifiers",
          "type": "address[]"
        },
        {
          "indexed": false,
          "name": "state",
          "type": "bool"
        }
      ],
      "name": "CommitPhaseStarted",
      "type": "event"
    },
    {
      "anonymous": false,
      "inputs": [
        {
          "indexed": false,
          "name": "losers",
          "type": "address[]"
        },
        {
          "indexed": false,
          "name": "state",
          "type": "int8"
        }
      ],
      "name": "CommitmentRevealResult",
      "type": "event"
    },
    {
      "constant": true,
      "inputs": [
        {
          "name": "challengeId",
          "type": "bytes32"
        }
      ],
      "name": "doesChallengeExist",
      "outputs": [
        {
          "name": "",
          "type": "bool"
        }
      ],
      "payable": false,
      "stateMutability": "view",
      "type": "function"
    },
    {
      "constant": false,
      "inputs": [
        {
          "name": "modelId",
          "type": "bytes32"
        },
        {
          "name": "challengeId",
          "type": "bytes32"
        },
        {
          "name": "wallTime",
          "type": "uint256"
        },
        {
          "name": "kVerifiers",
          "type": "uint256"
        },
        {
          "name": "testingData",
          "type": "bytes32"
        }
      ],
      "name": "initChallenge",
      "outputs": [
        {
          "name": "",
          "type": "bool"
        }
      ],
      "payable": false,
      "stateMutability": "nonpayable",
      "type": "function"
    },
    {
      "constant": false,
      "inputs": [
        {
          "name": "challengeId",
          "type": "bytes32"
        }
      ],
      "name": "startCommitRevealPhase",
      "outputs": [
        {
          "name": "",
          "type": "bool"
        }
      ],
      "payable": false,
      "stateMutability": "nonpayable",
      "type": "function"
    },
    {
      "constant": false,
      "inputs": [
        {
          "name": "challengeId",
          "type": "bytes32"
        }
      ],
      "name": "getCommitRevealResults",
      "outputs": [
        {
          "name": "",
          "type": "address[]"
        },
        {
          "name": "",
          "type": "int8"
        }
      ],
      "payable": false,
      "stateMutability": "nonpayable",
      "type": "function"
    },
    {
      "constant": true,
      "inputs": [],
      "name": "getAvailableVerifiers",
      "outputs": [
        {
          "name": "",
          "type": "address[]"
        }
      ],
      "payable": false,
      "stateMutability": "view",
      "type": "function"
    },
    {
      "constant": false,
      "inputs": [
        {
          "name": "amount",
          "type": "uint256"
        },
        {
          "name": "slots",
          "type": "uint256"
        }
      ],
      "name": "registerVerifier",
      "outputs": [
        {
          "name": "",
          "type": "bool"
        }
      ],
      "payable": false,
      "stateMutability": "nonpayable",
      "type": "function"
    },
    {
      "constant": false,
      "inputs": [
        {
          "name": "actor",
          "type": "address"
        }
      ],
      "name": "deregisterVerifier",
      "outputs": [
        {
          "name": "",
          "type": "bool"
        }
      ],
      "payable": false,
      "stateMutability": "nonpayable",
      "type": "function"
    },
    {
      "constant": false,
      "inputs": [
        {
          "name": "challengeId",
          "type": "bytes32"
        },
        {
          "name": "actor",
          "type": "address"
        }
      ],
      "name": "slashVerifier",
      "outputs": [
        {
          "name": "",
          "type": "bool"
        }
      ],
      "payable": false,
      "stateMutability": "nonpayable",
      "type": "function"
    },
    {
      "constant": true,
      "inputs": [
        {
          "name": "challengeId",
          "type": "bytes32"
        }
      ],
      "name": "isVerifiedProof",
      "outputs": [
        {
          "name": "",
          "type": "bool"
        }
      ],
      "payable": false,
      "stateMutability": "view",
      "type": "function"
    },
    {
      "constant": true,
      "inputs": [
        {
          "name": "challengeId",
          "type": "bytes32"
        }
      ],
      "name": "getChallengeOwner",
      "outputs": [
        {
          "name": "",
          "type": "address"
        }
      ],
      "payable": false,
      "stateMutability": "view",
      "type": "function"
    },
    {
      "constant": true,
      "inputs": [
        {
          "name": "verifier",
          "type": "address"
        }
      ],
      "name": "isRegisteredVerifier",
      "outputs": [
        {
          "name": "",
          "type": "bool"
        }
      ],
      "payable": false,
      "stateMutability": "view",
      "type": "function"
    }
  ],
  "bytecode": "0x608060405234801561001057600080fd5b5060405160c080611c73833981018060405260c081101561003057600080fd5b508051602082015160408301516060840151608085015160a0909501519394929391929091600160a060020a03821615156100f257604080517f08c379a000000000000000000000000000000000000000000000000000000000815260206004820152602d60248201527f696e76616c696420636f6d6d69742d72657665616c20736368656d6520636f6e60448201527f7472616374206164647265737300000000000000000000000000000000000000606482015290519081900360840190fd5b600160a060020a038116151561018f57604080517f08c379a000000000000000000000000000000000000000000000000000000000815260206004820152602160248201527f696e76616c696420666974636861696e2072656769737472792061646472657360448201527f7300000000000000000000000000000000000000000000000000000000000000606482015290519081900360840190fd5b60048054600160a060020a03928316600160a060020a03199182161790915560058054939092169216919091179055604080516080810182529485526020808601948552858201938452606086019283523060009081529081905220935184559151600184015551600283015551600390910155611a61806102126000396000f3fe6080604052600436106100955763ffffffff60e060020a60003504166318930577811461009a5780634196219a146100e057806361b2806f1461011e57806369534c97146101485780636abc1d8c14610181578063811a280a146101ab578063a778f99d146101de578063cfd946161461020e578063d5f1f8df14610250578063f2501e46146102db578063f3b2c8941461030e575b600080fd5b3480156100a657600080fd5b506100c4600480360360208110156100bd57600080fd5b5035610373565b60408051600160a060020a039092168252519081900360200190f35b3480156100ec57600080fd5b5061010a6004803603602081101561010357600080fd5b50356103fd565b604080519115158252519081900360200190f35b34801561012a57600080fd5b5061010a6004803603602081101561014157600080fd5b5035610412565b34801561015457600080fd5b5061010a6004803603604081101561016b57600080fd5b5080359060200135600160a060020a0316610498565b34801561018d57600080fd5b5061010a600480360360208110156101a457600080fd5b5035610601565b3480156101b757600080fd5b5061010a600480360360208110156101ce57600080fd5b5035600160a060020a0316610ab7565b3480156101ea57600080fd5b5061010a6004803603604081101561020157600080fd5b5080359060200135610b8c565b34801561021a57600080fd5b5061010a600480360360a081101561023157600080fd5b5080359060208101359060408101359060608101359060800135610c57565b34801561025c57600080fd5b5061027a6004803603602081101561027357600080fd5b50356111b2565b60405180806020018360000b60000b8152602001828103825284818151815260200191508051906020019060200280838360005b838110156102c65781810151838201526020016102ae565b50505050905001935050505060405180910390f35b3480156102e757600080fd5b5061010a600480360360208110156102fe57600080fd5b5035600160a060020a0316611728565b34801561031a57600080fd5b50610323611808565b60408051602080825283518183015283519192839290830191858101910280838360005b8381101561035f578181015183820152602001610347565b505050509050019250505060405180910390f35b600081815260016020526040812054829060ff1615156103dd576040805160e560020a62461bcd02815260206004820152601860248201527f6368616c6c65676520646f6573206e6f74206578697374210000000000000000604482015290519081900360640190fd5b5050600090815260016020526040902060060154600160a060020a031690565b60009081526001602052604090205460ff1690565b600081815260026020526040812054829060ff16151561047c576040805160e560020a62461bcd02815260206004820152601560248201527f50726f6f6620646f6573206e6f74206578697374210000000000000000000000604482015290519081900360640190fd5b5050600090815260026020526040902054610100900460ff1690565b6000828152600160205260408120600601548390600160a060020a0316301461050b576040805160e560020a62461bcd02815260206004820152601760248201527f696e76616c6964206368616c6c656e6765206f776e6572000000000000000000604482015290519081900360640190fd5b60045460408051306c010000000000000000000000008102602080840191909152835160148185030181526034840180865281519183019190912060009384528383528584206001908101547f62db8bc2000000000000000000000000000000000000000000000000000000009093526038860191909152600160a060020a038a8116605887015260788601929092526098850152935193909416936362db8bc29360b880850194929391928390030190829087803b1580156105cd57600080fd5b505af11580156105e1573d6000803e3d6000fd5b505050506040513d60208110156105f757600080fd5b5051949350505050565b6000818152600160205260408120548290829060ff16151561066d576040805160e560020a62461bcd02815260206004820152601960248201527f4368616c6c656e676520646f6573206e6f742065786973742100000000000000604482015290519081900360640190fd5b60005b6000838152600160205260409020600701548110156106cf5760008381526001602052604090206007018054829081106106a657fe5b600091825260209091200154600160a060020a03163314156106c757600191505b600101610670565b5080151561074d576040805160e560020a62461bcd02815260206004820152602b60248201527f73656e646572206973206e6f74206120766572696669657220666f722074686960448201527f73206368616c6c656e6765000000000000000000000000000000000000000000606482015290519081900360840190fd5b600084815260036020908152604080832033845290915290205484906001116107e6576040805160e560020a62461bcd02815260206004820152602360248201527f696e6469636174696e67207265706c61792061747461636b20666f7220766f7460448201527f696e670000000000000000000000000000000000000000000000000000000000606482015290519081900360840190fd5b60008581526003602090815260408083203384528252808320805460019081019091558884529182905290912060028101805490920191829055600701541415610a01577ff2f81af9bef758d4108b7e890e3bcffc0eb60a26e7256540486b3309f91ee6e78560016000888152602001908152602001600020600701600160405180848152602001806020018315151515815260200182810382528481815481526020019150805480156108c357602002820191906000526020600020905b8154600160a060020a031681526001909101906020018083116108a5575b505094505050505060405180910390a16005543060009081526020818152604080832060028101546003909101548a855260019093529281902090517fd78d86f0000000000000000000000000000000000000000000000000000000008152600481018a815260248201859052604482018490526080606483019081526007909301805460848401819052600160a060020a039097169663d78d86f0968d9690959094929392909160a490910190849080156109a857602002820191906000526020600020905b8154600160a060020a0316815260019091019060200180831161098a575b505095505050505050602060405180830381600087803b1580156109cb57600080fd5b505af11580156109df573d6000803e3d6000fd5b505050506040513d60208110156109f557600080fd5b5060019450610aaf9050565b7ff2f81af9bef758d4108b7e890e3bcffc0eb60a26e7256540486b3309f91ee6e7856001600088815260200190815260200160002060070160006040518084815260200180602001831515151581526020018281038252848181548152602001915080548015610a9a57602002820191906000526020600020905b8154600160a060020a03168152600190910190602001808311610a7c575b505094505050505060405180910390a1600093505b505050919050565b600454604080516c01000000000000000000000000300260208083019190915282518083036014018152603483018085528151918301919091207f5cfcdbc500000000000000000000000000000000000000000000000000000000909152600160a060020a038681166038850152605884019190915292516000949390931692635cfcdbc592607880820193929182900301818787803b158015610b5a57600080fd5b505af1158015610b6e573d6000803e3d6000fd5b505050506040513d6020811015610b8457600080fd5b505192915050565b306000908152602081905260408120600101548390811015610bad57600080fd5b600454604080516c01000000000000000000000000300260208083019190915282518083036014018152603483018085528151918301919091207fa7e7c09f00000000000000000000000000000000000000000000000000000000909152336038840152605883018890526078830152609882018890529151600160a060020a039093169263a7e7c09f9260b8808401939192918290030181600087803b1580156105cd57600080fd5b600084815260016020526040812054859060ff1615610cc0576040805160e560020a62461bcd02815260206004820152601660248201527f6368616c6c65676520616c726561647920657869737400000000000000000000604482015290519081900360640190fd5b60148511610d64576040805160e560020a62461bcd02815260206004820152604860248201527f696e76616c69642077616c6c54696d652c2073686f756c64206265206174206c60448201527f656173742067726561746572207468616e206176657261676520626c6f636b2060648201527f696e74657276616c000000000000000000000000000000000000000000000000608482015290519081900360a40190fd5b6060610d6e611808565b90508481511015156110e9576101006040519081016040528060011515815260200187420181526020016000815260200189815260200188815260200185815260200133600160a060020a031681526020016000604051908082528060200260200182016040528015610deb578160200160208202803883390190505b5090526000888152600160208181526040928390208451815460ff19169015151781558482015192810192909255918301516002820155606083015160038201556080830151600482015560a0830151600582015560c083015160068201805473ffffffffffffffffffffffffffffffffffffffff1916600160a060020a0390921691909117905560e083015180519192610e8e92600785019290910190611992565b50905050610e9c87866118ec565b8514610f18576040805160e560020a62461bcd02815260206004820152602560248201527f756e61626c6520746f207365742076657269666965727320666f72206368616c60448201527f6c656e6765000000000000000000000000000000000000000000000000000000606482015290519081900360840190fd5b60005b600088815260016020526040902060070154811015610feb5760045460008981526001602052604090206007018054600160a060020a039092169163149fe509919084908110610f6757fe5b60009182526020808320909101546040805160e060020a63ffffffff8716028152600160a060020a0390921660048301525160248083019491928390030190829087803b158015610fb757600080fd5b505af1158015610fcb573d6000803e3d6000fd5b505050506040513d6020811015610fe157600080fd5b5050600101610f1b565b506040805180820182526001808252600060208084018281528c83526002825285832094518554915115156101000261ff001991151560ff1990931692909217161790935581835283902083518b81529384018b9052606084018890526080840182905260a0928401838152600790910180549385018490527fdeecfa2a4059ad7cd3c0c153cf00677e7ca6d50d1f50a63790e74acd02e64dda948c94919385938b9391929160c0830190879080156110cd57602002820191906000526020600020905b8154600160a060020a031681526001909101906020018083116110af575b5050965050505050505060405180910390a160019250506111a8565b7fdeecfa2a4059ad7cd3c0c153cf00677e7ca6d50d1f50a63790e74acd02e64dda87600160008a815260200190815260200160002060070189876000604051808681526020018060200185815260200184815260200183151515158152602001828103825286818154815260200191508054801561119057602002820191906000526020600020905b8154600160a060020a03168152600190910190602001808311611172575b5050965050505050505060405180910390a160009250505b5095945050505050565b6060600060606000806000600560009054906101000a9004600160a060020a0316600160a060020a031663e42d0d34886040518263ffffffff1660e060020a0281526004018082815260200191505060206040518083038186803b15801561121957600080fd5b505afa15801561122d573d6000803e3d6000fd5b505050506040513d602081101561124357600080fd5b50511561153d576005546000888152600160205260409081902081517ff64b2f5d000000000000000000000000000000000000000000000000000000008152600481018b8152602482019384526007909201805460448301819052600160a060020a039095169463f64b2f5d948d9492939091606490910190849080156112f357602002820191906000526020600020905b8154600160a060020a031681526001909101906020018083116112d5575b50509350505050600060405180830381600087803b15801561131457600080fd5b505af1158015611328573d6000803e3d6000fd5b505050506040513d6000823e601f3d908101601f19168201604090815281101561135157600080fd5b81019080805164010000000081111561136957600080fd5b8201602081018481111561137c57600080fd5b815185602082028301116401000000008211171561139957600080fd5b505060209182015160408051600083810b810b828701528282528451928201929092528351939a509198507f68fc6082c6d7d20e46db71721bf99d5d7e2d00053fb55424e71df40a3f0d71b29550899450889391928392606084019281880192909102908190849084905b8381101561141c578181015183820152602001611404565b50505050905001935050505060405180910390a18260000b60011415611458576000878152600260205260409020805461ff0019166101001790555b600091505b6000878152600160205260409020600701548210156115305760045460008881526001602052604090206007018054600160a060020a039092169163772279dd9190859081106114a957fe5b60009182526020808320909101546040805160e060020a63ffffffff8716028152600160a060020a0390921660048301525160248083019491928390030190829087803b1580156114f957600080fd5b505af115801561150d573d6000803e3d6000fd5b505050506040513d602081101561152357600080fd5b505060019091019061145d565b5091935091506117239050565b600091505b600087815260016020526040902060070154821015611686575060005b835181101561167b57600087815260016020526040902060070180548390811061158557fe5b6000918252602090912001548451600160a060020a03909116908590839081106115ab57fe5b60209081029091010151600160a060020a0316146116735760045460008881526001602052604090206007018054600160a060020a039092169163772279dd9190859081106115f657fe5b60009182526020808320909101546040805160e060020a63ffffffff8716028152600160a060020a0390921660048301525160248083019491928390030190829087803b15801561164657600080fd5b505af115801561165a573d6000803e3d6000fd5b505050506040513d602081101561167057600080fd5b50505b60010161155f565b600190910190611542565b7f68fc6082c6d7d20e46db71721bf99d5d7e2d00053fb55424e71df40a3f0d71b28460001960405180806020018360000b8152602001828103825284818151815260200191508051906020019060200280838360005b838110156116f45781810151838201526020016116dc565b50505050905001935050505060405180910390a150506040805160008152602081019091529350600019925050505b915091565b6000600160a060020a038216151561178a576040805160e560020a62461bcd02815260206004820152601860248201527f696e76616c696420676f73736970657220616464726573730000000000000000604482015290519081900360640190fd5b60048054604080517f2bc6aa4e000000000000000000000000000000000000000000000000000000008152600160a060020a038681169482019490945290519290911691632bc6aa4e91602480820192602092909190829003018186803b1580156117f457600080fd5b505afa158015610b6e573d6000803e3d6000fd5b6060600460009054906101000a9004600160a060020a0316600160a060020a03166329d8e19b6040518163ffffffff1660e060020a02815260040160006040518083038186803b15801561185b57600080fd5b505afa15801561186f573d6000803e3d6000fd5b505050506040513d6000823e601f3d908101601f19168201604052602081101561189857600080fd5b8101908080516401000000008111156118b057600080fd5b820160208101848111156118c357600080fd5b81518560208202830111640100000000821117156118e057600080fd5b50909450505050505b90565b600060606118f8611808565b905060005b83811015611979576000858152600160205260409020825160079091019083908390811061192757fe5b602090810291909101810151825460018082018555600094855292909320909201805473ffffffffffffffffffffffffffffffffffffffff1916600160a060020a0390931692909217909155016118fd565b5050506000918252506001602052604090206007015490565b8280548282559060005260206000209081019282156119f4579160200282015b828111156119f4578251825473ffffffffffffffffffffffffffffffffffffffff1916600160a060020a039091161782556020909201916001909101906119b2565b50611a00929150611a04565b5090565b6118e991905b80821115611a0057805473ffffffffffffffffffffffffffffffffffffffff19168155600101611a0a56fea165627a7a72305820db2e3d580b370b068ad1993298a2500a622a74b12e1019e021e1f70ac7002a9f0029",
  "source": "pragma solidity ^0.5.0;\n\nimport './FitchainRegistry.sol';\nimport './CommitReveal.sol';\n\n/**\n@title Fitchain Model Verifiers Pool Contract (VPC)\n@author Team: Fitchain Team\n*/\n\ncontract VerifiersPool {\n\n    struct Challenge{\n        bool exist;\n        uint256 wallTime;\n        uint256 canCommit;\n        bytes32 modelId;\n        bytes32 proofId;\n        bytes32 testingData;\n        address owner;\n        address[] verifiers;\n    }\n\n    struct Proof{\n        bool exist;\n        bool isVerified;\n    }\n\n    struct VPCSetting{\n        uint256 minKVerifiers;\n        uint256 minStake;\n        uint256 commitTimeout;\n        uint256 revealTimeout;\n    }\n\n    mapping (address => VPCSetting) VPCsettings;\n    mapping (bytes32 => Challenge) challenges;\n    mapping(bytes32 => Proof) proofs;\n    mapping(bytes32 => mapping (address => uint256)) voteOnce;\n    FitchainRegistry private registry;\n    CommitReveal private commitReveal;\n\n    // events\n    event ChallengeInitialized(bytes32 challengeId, address[] verifiers, bytes32 proofId, bytes32 testingData, bool state);\n    event CommitPhaseStarted(bytes32 challengeId, address[] verifiers, bool state);\n    event CommitmentRevealResult(address[] losers, int8 state);\n\n    // modifiers\n    modifier onlyChallengeVerifiers(bytes32 challengeId){\n        bool isVerifier = false;\n        require(challenges[challengeId].exist, 'Challenge does not exist!');\n        for(uint256 i=0; i < challenges[challengeId].verifiers.length; i++){\n            if(msg.sender == challenges[challengeId].verifiers[i]) isVerifier = true;\n        }\n        require(isVerifier, 'sender is not a verifier for this challenge');\n        _;\n    }\n\n    modifier onlyChallengeOwner(bytes32 challengeId){\n        require(address(this) == challenges[challengeId].owner, 'invalid challenge owner');\n        _;\n    }\n\n    modifier onlyValidStake(uint256 amount){\n        require(amount >= VPCsettings[address(this)].minStake);\n        _;\n    }\n\n    modifier onlyExistProof(bytes32 proofId) {\n        require(proofs[proofId].exist,'Proof does not exist!');\n        _;\n    }\n\n    modifier onlyExistChallenge(bytes32 challengeId){\n        require(challenges[challengeId].exist, 'challege does not exist!');\n        _;\n    }\n\n    modifier onlyNotExistChallenge(bytes32 challengeId) {\n        require(!challenges[challengeId].exist, 'challege already exist');\n        _;\n    }\n\n    modifier onlyCanVoteOnce(bytes32 challengeId) {\n        require(voteOnce[challengeId][msg.sender] < 1, 'indicating replay attack for voting');\n        _;\n    }\n\n    // init VPC settings\n    constructor(uint256 _minKVerifiers, uint256 _minStake, uint256 _commitTimeout, uint256 _revealTimeout, address _commitReveal, address _registry) public {\n        require(_commitReveal != address(0), 'invalid commit-reveal scheme contract address');\n        require(_registry != address(0), 'invalid fitchain registry address');\n        registry = FitchainRegistry(_registry);\n        commitReveal = CommitReveal(_commitReveal);\n        VPCsettings[address(this)] = VPCSetting(_minKVerifiers, _minStake, _commitTimeout, _revealTimeout);\n    }\n\n    function doesChallengeExist(bytes32 challengeId) public view returns(bool){\n        return challenges[challengeId].exist;\n    }\n\n    function initChallenge(bytes32 modelId, bytes32 challengeId, uint256 wallTime, uint256 kVerifiers, bytes32 testingData) public onlyNotExistChallenge(challengeId) returns(bool){\n        require(wallTime > 20, 'invalid wallTime, should be at least greater than average block interval');\n        address[] memory verifiers = getAvailableVerifiers();\n        if(verifiers.length >= kVerifiers){\n            challenges[challengeId] = Challenge(true, block.timestamp + wallTime, 0,modelId, challengeId, testingData, msg.sender, new address[](0));\n            require(kVerifiers == getKVerifiers(challengeId, kVerifiers), 'unable to set verifiers for challenge');\n            for (uint256 i=0; i < challenges[challengeId].verifiers.length; i++){\n                registry.decrementActorSlots(challenges[challengeId].verifiers[i]);\n            }\n            // now verifiers can start validation using\n            proofs[challengeId] = Proof(true, false);\n            emit ChallengeInitialized(challengeId, challenges[challengeId].verifiers, challengeId, testingData, true);\n            return true;\n        }\n        emit ChallengeInitialized(challengeId, challenges[challengeId].verifiers, challengeId, testingData, false);\n        return false;\n\n    }\n\n    function startCommitRevealPhase(bytes32 challengeId) public onlyChallengeVerifiers(challengeId) onlyCanVoteOnce(challengeId) returns(bool) {\n        voteOnce[challengeId][msg.sender] +=1;\n        challenges[challengeId].canCommit +=1;\n        if (challenges[challengeId].canCommit == challenges[challengeId].verifiers.length){\n            emit CommitPhaseStarted(challengeId, challenges[challengeId].verifiers, true);\n            commitReveal.setup(challengeId, VPCsettings[address(this)].commitTimeout, VPCsettings[address(this)].revealTimeout, challenges[challengeId].verifiers);\n            return true;\n        }\n        emit CommitPhaseStarted(challengeId, challenges[challengeId].verifiers, false);\n        return false;\n    }\n\n    function getCommitRevealResults(bytes32 challengeId) public returns(address[] memory, int8 ){\n        address[] memory losers;\n        int8 state;\n        uint256 i;\n        uint256 j;\n        if (commitReveal.isCommitmentTimedout(challengeId)){\n            (losers, state) = commitReveal.getCommitmentResult(challengeId, challenges[challengeId].verifiers);\n            emit CommitmentRevealResult(losers, state);\n            if(state == 1) proofs[challengeId].isVerified = true;\n            for(i=0; i < challenges[challengeId].verifiers.length; i++) registry.incrementActorSlots(challenges[challengeId].verifiers[i]);\n            return (losers, state);\n        }\n        // -1 indicate the challenge still not timed-out.\n        // free only who are not losers\n        for(i=0; i < challenges[challengeId].verifiers.length; i++){\n            for(j=0; j < losers.length; j++){\n                if(losers[j] != challenges[challengeId].verifiers[i]) registry.incrementActorSlots(challenges[challengeId].verifiers[i]);\n            }\n        }\n        emit CommitmentRevealResult(losers, -1);\n        return (new address[](0), -1);\n    }\n\n    function getAvailableVerifiers() public view returns(address[] memory){\n        return registry.getAvaliableRegistrants();\n    }\n\n    function registerVerifier(uint256 amount, uint256 slots) public onlyValidStake(amount) returns(bool){\n        return registry.register(msg.sender, slots, keccak256(abi.encodePacked(address(this))), amount);\n    }\n\n    function deregisterVerifier(address actor) public returns(bool){\n        return registry.deregister(actor, keccak256(abi.encodePacked(address(this))));\n    }\n\n    function slashVerifier(bytes32 challengeId, address actor) public onlyChallengeOwner(challengeId) returns(bool){\n        return registry.slashActor(keccak256(abi.encodePacked(address(this))), actor, VPCsettings[address(this)].minStake, true);\n    }\n\n    function getKVerifiers(bytes32 challengeId, uint256 K) private returns(uint256){\n        address[] memory verifiersSet = getAvailableVerifiers();\n        for(uint256 i=0; i< K; i++){\n            challenges[challengeId].verifiers.push(verifiersSet[i]);\n        }\n        return challenges[challengeId].verifiers.length;\n    }\n\n    function isVerifiedProof(bytes32 challengeId) public view onlyExistProof(challengeId) returns(bool){\n        return proofs[challengeId].isVerified;\n    }\n\n    function getChallengeOwner(bytes32 challengeId) public view onlyExistChallenge(challengeId) returns(address){\n        return challenges[challengeId].owner;\n    }\n\n    function isRegisteredVerifier(address verifier) public view returns(bool){\n        require(verifier != address(0), 'invalid gossiper address');\n        return registry.isActorRegistered(verifier);\n    }\n}\n",
  "sourcePath": "/Users/fancy/Documents/Ocean Protocol/research/16-research-repo/research/1-fitchain-analysis/fitchain-contracts/contracts/VerifiersPool.sol",
  "compiler": {
    "name": "solc",
    "version": "0.5.0+commit.1d4f565a.Emscripten.clang"
  },
  "schemaVersion": "3.0.1",
  "updatedAt": "2019-01-24T02:15:21.601Z",
  "devdoc": {
    "author": "Team: Fitchain Team",
    "methods": {},
    "title": "Fitchain Model Verifiers Pool Contract (VPC)"
  },
  "userdoc": {
    "methods": {}
  }
}